:100000000C945D000C9485000C9485000C94850084
:100010000C9485000C9485000C9485000C9485004C
:100020000C9485000C9485000C9485000C9485003C
:100030000C9485000C9485000C9485000C9485002C
:100040000C9420040C9485000C94EE030C94C803CB
:100050000C9485000C9485000C9485000C9485000C
:100060000C946A040C948500000000080002010052
:100070000003040700000000000000000000000072
:10008000250028002B0000000000240027002A0083
:10009000040404040404040402020202020203032E
:1000A0000303030301020408102040800102040836
:1000B0001020010204081020890511241FBECFEF73
:1000C000D8E0DEBFCDBF11E0A0E0B1E0E6E3F1E1B2
:1000D00002C005900D92A436B107D9F722E0A4E63C
:1000E000B1E001C01D92AA3CB207E1F710E0CDE5F6
:1000F000D0E004C02197FE010E948408CC35D107CE
:10010000C9F70E94C2050C9499080C940000982F1E
:100110002091200281E0213208F043C08091FC014F
:100120008111FCCF80911F0232E03093FC0190934B
:10013000FB019FEF9093FA011092F9012093F801CF
:10014000AFEFB1E0E8EDF1E090E0291331C010929B
:10015000D7019091D701880F892B8093D701809187
:10016000D601813049F51092D6018091D701809354
:10017000BB008091BC0083FDF8CF85EC8093BC0070
:100180008091FC018230E1F38091FA018F3FB1F060
:100190008091FA018032A1F08091FA01803391F0D0
:1001A00084E01092FE01109220021092FD01089549
:1001B0003D9131939F5FC9CF85EEE0CF80E0F1CFD5
:1001C00082E0EFCF83E0EDCF08950895AF92BF9224
:1001D000CF92DF92EF92FF920F931F93CF93DF9313
:1001E0006C017B018B01040F151FEB015E01AE1842
:1001F000BF08C017D10759F06991D601ED91FC9164
:100200000190F081E02DC6010995892B79F7C50190
:10021000DF91CF911F910F91FF90EF90DF90CF90E2
:10022000BF90AF900895FC01538D448D252F30E091
:10023000842F90E0821B930B541710F0CF960895F3
:1002400001970895FC01918D828D981761F0A28D20
:10025000AE0FBF2FB11D5D968C91928D9F5F9F73E6
:10026000928F90E008958FEF9FEF0895FC01918D9C
:10027000828D981731F0828DE80FF11D858D90E009
:1002800008958FEF9FEF0895FC01918D228D892FA6
:1002900090E0805C9F4F821B91098F73992708958E
:1002A00081E292E00E94440121E0892B09F420E0E0
:1002B000822F089580E090E0892B29F00E94500160
:1002C00081110C9400000895FC01A48DA80FB92F92
:1002D000B11DA35ABF4F2C91848D90E001968F736E
:1002E0009927848FA689B7892C93A089B1898C918D
:1002F000837080648C93938D848D981306C00288DC
:10030000F389E02D80818F7D80830895EF92FF92A5
:100310000F931F93CF93DF93EC0181E0888F9B8D28
:100320008C8D98131AC0E889F989808185FF15C0E2
:100330009FB7F894EE89FF896083E889F989808105
:100340008370806480839FBF81E090E0DF91CF91D4
:100350001F910F91FF90EF900895F62E0B8D10E0F6
:100360000F5F1F4F0F731127E02E8C8D8E110CC065
:100370000FB607FCFACFE889F989808185FFF5CFB0
:10038000CE010E946401F1CFEB8DEC0FFD2FF11D2A
:10039000E35AFF4FF0829FB7F8940B8FEA89FB89ED
:1003A00080818062CFCFCF93DF93EC01888D88234B
:1003B000B9F0AA89BB89E889F9898C9185FD03C0C8
:1003C000808186FD0DC00FB607FCF7CF8C9185FFAD
:1003D000F2CF808185FFEDCFCE010E946401E9CF8D
:1003E000DF91CF91089590E0FC01E859FF4F2491EF
:1003F000FC01EC55FF4F3491FC01E057FF4FE491B5
:10040000EE23C9F0222339F0233001F1A8F4213082
:1004100019F1223029F1F0E0EE0FFF1FE458FF4FF1
:10042000A591B4918FB7F894EC91611126C03095E5
:100430003E233C938FBF08952730A9F02830C9F0A0
:10044000243049F7809180008F7D03C08091800027
:100450008F7780938000DFCF84B58F7784BDDBCF2B
:1004600084B58F7DFBCF8091B0008F778093B000F3
:10047000D2CF8091B0008F7DF9CF3E2BDACF3FB73E
:10048000F8948091AC019091AD01A091AE01B09132
:10049000AF0126B5A89B05C02F3F19F00196A11DFD
:1004A000B11D3FBFBA2FA92F982F8827BC01CD01BE
:1004B000620F711D811D911D42E0660F771F881F1D
:1004C000991F4A95D1F708958F929F92AF92BF924C
:1004D000CF92DF92EF92FF920E943F024B015C01AC
:1004E00088EEC82E83E0D82EE12CF12C0E943F022A
:1004F000681979098A099B09683E7340810591054D
:10050000A8F321E0C21AD108E108F10888EE880EAC
:1005100083E0981EA11CB11CC114D104E104F104B4
:1005200029F7FF90EF90DF90CF90BF90AF909F9012
:100530008F900895FC01908190539A3008F090E0DC
:10054000818180532AE0929F800D1124089585EDCA
:100550008093BC008091BC0084FDFCCF1092FC0114
:10056000089520918401260F3327331F213231054E
:10057000ECF42091FC01FC0190E080E0243069F073
:1005800082E00895A09184012191AC014C595E4F05
:10059000A40FB52FB11D2C930196861798F3809167
:1005A0008401680F6093840180E0089581E00895DC
:1005B0000895E091B5018091B401E81730F4F0E0BE
:1005C000EA54FE4F808190E008958FEF9FEF0895E9
:1005D0009091B5018091B4012FEF3FEF981748F447
:1005E000E92FF0E0EA54FE4F208130E09F5F9093C6
:1005F000B501C90108958091B4019091B501891B9D
:10060000990B0895CF92DF92EF92FF920F931F9371
:10061000CF93DF937C01CB018A012091FD0122233E
:1006200089F0EB016B01C40ED51ECC15DD0569F018
:100630006991D701ED91FC910190F081E02DC70106
:100640000995F3CF642F0E94B102C801DF91CF91C9
:100650001F910F91FF90EF90DF90CF900895CF936F
:10066000DF931F92CDB7DEB769832091FD0122236E
:10067000F9F020912002203258F021E030E0FC0116
:100680003383228390E080E00F90DF91CF91089533
:100690008091FE01E82FF0E0E150FE4F99819083B8
:1006A0008F5F8093FE018093200281E090E0ECCF89
:1006B00061E0CE0101960E94B102F7CF90E080E0A8
:1006C0000895CF93DF93D0E0C0E0009771F0FC0174
:1006D00001900020E9F73197AF01481B590BBC018D
:1006E00081E292E00E94E600EC0142E050E069E322
:1006F00071E081E292E00E94E6008C0F9D1FDF9185
:10070000CF9108959091FC019111FCCF282F91E099
:100710009093FC019093FB013FEF3093FA0110920C
:10072000F901380F3093F8019093D7019091D701D8
:10073000906D9093D7019091D601913019F5109258
:10074000D6019091D7019093BB009091BC0093FD8E
:10075000F8CF95EC9093BC009091FC019130E1F3BF
:100760009091F901981710F42091F901A8EDB1E0EA
:10077000E6EBF1E080E0821307C01092B5018093B0
:10078000B401089595EEE6CF9D9191938F5FF3CFDD
:100790001F920F920FB60F9211242F933F934F93F6
:1007A0005F936F937F938F939F93AF93BF93EF93D9
:1007B000FF9381E292E00E946401FF91EF91BF916B
:1007C000AF919F918F917F916F915F914F913F91E9
:1007D0002F910F900FBE0F901F9018951F920F92A0
:1007E0000FB60F9211242F938F939F93EF93FF9344
:1007F000E0913102F09132028081E0913702F09174
:10080000380282FD1BC0908180913A028F5F8F7306
:1008100020913B02821741F0E0913A02F0E0EF5D57
:10082000FD4F958F80933A02FF91EF919F918F91A9
:100830002F910F900FBE0F901F9018958081F4CFCD
:100840001F920F920FB60F9211242F933F938F9305
:100850009F93AF93BF938091A8019091A901A0911C
:10086000AA01B091AB013091A70123E0230F2D37EE
:1008700058F50196A11DB11D2093A7018093A801F1
:100880009093A901A093AA01B093AB018091AC0110
:100890009091AD01A091AE01B091AF010196A11D63
:1008A000B11D8093AC019093AD01A093AE01B093C4
:1008B000AF01BF91AF919F918F913F912F910F9079
:1008C0000FBE0F901F90189526E8230F0296A11DCA
:1008D000B11DD2CF1F920F920FB60F9211242F93FA
:1008E0003F934F935F936F937F938F939F93AF93B8
:1008F000BF93EF93FF938091B900887F803609F40E
:100900004AC0F0F5883209F4A7C018F5803109F41F
:100910009BC0B8F4882309F4F9C0883009F494C066
:10092000FF91EF91BF91AF919F918F917F916F91C7
:100930005F914F913F912F910F900FBE0F901F909D
:100940001895883109F488C0803251F78093FA01F4
:1009500014C0803409F49DC040F48033B9F3883367
:10096000F9F68093FA0185ECB0C0803509F485C0B2
:10097000883509F496C0883499F60E94A702D0CF32
:10098000883909F48CC038F5883729F050F4883656
:1009900011F0803729F683E08093FC011092A601C4
:1009A00057C0883809F47BC0803919F0803809F0C5
:1009B000B7CF8091A601803208F071C0E091A60106
:1009C00081E08E0F8093A6018091BB00F0E0EA5792
:1009D000FE4F80833DC0803B39F0E0F4803A09F45B
:1009E00079C0883A09F09CCF84E08093FC01109292
:1009F000850110928401E091B201F091B301099553
:100A00008091840181110FC081E080938401109254
:100A1000640109C0803C09F4A6CF883C09F4A3CF47
:100A2000883B09F07DCFE091850181E08E0F8093B6
:100A30008501F0E0EC59FE4F80818093BB009091DE
:100A400085018091840129C08091D7018093BB00EA
:100A500085EC8093BC0064CF9091F9018091F801FE
:100A6000981758F5E091F90181E08E0F8093F90114
:100A7000F0E0E852FE4F8081E9CFE091F90181E09A
:100A80008E0F8093F9018091BB00F0E0E852FE4F99
:100A900080839091F9018091F8019817C8F285E858
:100AA000D8CFE091F90181E08E0F8093F901809118
:100AB000BB00F0E0E852FE4F80838091FB01811182
:100AC0005CCF81E08093D60184EA8093BC001092D1
:100AD000FC0126CF85EC8093BC001092FC01809134
:100AE000A601803230F4E091A601F0E0EA57FE4F13
:100AF00010826091A60170E0E091B001F091B10127
:100B000086E891E009951092A6010ACF1092FA01A9
:100B100034CFE1E2F2E01382128288EE93E0A0E0AB
:100B2000B0E084839583A683B78329E131E03183E4
:100B3000208325EC30E03587248724EC30E03787AC
:100B4000268720EC30E0318B208B21EC30E0338B9A
:100B5000228B22EC30E0358B248B26EC30E0378B77
:100B6000268B118E128E138E148EEEEBF2E0138212
:100B7000128284839583A683B7838BE291E091836D
:100B800080830895CF93DF93CDB7DEB7C556D109E3
:100B90000FB6F894DEBF0FBECDBF789484B58260E7
:100BA00084BD84B5816084BD85B5826085BD85B511
:100BB000816085BD80916E00816080936E0010928F
:100BC000810080918100826080938100809181000A
:100BD000816080938100809180008160809380009B
:100BE0008091B10084608093B1008091B0008160F9
:100BF0008093B00080917A00846080937A00809125
:100C00007A00826080937A0080917A00816080937C
:100C10007A0080917A00806880937A001092C100F7
:100C20001092B5011092B4011092FE0110922002B0
:100C30001092FC0181E08093FB011092D60161E0EB
:100C400082E10E94F30161E083E10E94F30180915F
:100C5000B9008E7F8093B9008091B9008D7F809319
:100C6000B90088E48093B80085E48093BC0084EEEA
:100C700090E09093B3018093B20185EE90E0909361
:100C8000B1018093B001E0913102F091320282E033
:100C90008083E0912D02F0912E021082E0912F02CC
:100CA000F09130028FEC808310923902E09135028E
:100CB000F091360286E08083E0913302F0913402B5
:100CC000808180618083E0913302F09134028081E1
:100CD00088608083E0913302F091340280818068E3
:100CE0008083E0913302F091340280818F7D808394
:100CF000EEEAF0E02491EAE9F0E08491882399F0AB
:100D000090E0880F991FFC01EA57FF4FA591B4911D
:100D1000FC01E458FF4F859194918FB7F894EC91C2
:100D2000E22BEC938FBF0E94640201E00093FD016F
:100D300088E680931F021092FE011092200260E06C
:100D40008EEB92E00E942F0381E00E94870081E0F9
:100D500090E00E9482038EEB92E00E94E80287FFFF
:100D600029C18CE391E00E94610333243394F8E6B7
:100D70004F2E8E010F5F1F4FA2E35A2EB0E37B2E42
:100D800080E0E82E80E0F82E3092FD0140921F02B4
:100D90001092FE011092200260E08EEB92E00E9421
:100DA0002F0381E00E94870087E090E00E94820389
:100DB0008EEB92E00E94E8028F77282F30E094E0DB
:100DC000359527959A95E1F7922F990F990FD22E85
:100DD000D91ADD0CD80E8EEB92E00E94E8029C013D
:100DE00044E0359527954A95E1F72F703327922FE8
:100DF000990F990FC22EC91ACC0CC80E8EEB92E037
:100E00000E94E8029C0154E0359527955A95E1F738
:100E10002F703327922F990F990FA22EA91AAA0C7F
:100E2000A80E8EEB92E00E94E8028EEB92E00E9408
:100E3000E8029C0164E0359527956A95E1F72F70EB
:100E40003327922F990F990FB22EB91ABB0CB80EF7
:100E50008EEB92E00E94E8029C0174E035952795A4
:100E60007A95E1F72F703327922F990F990F922ED1
:100E7000991A990C980E8EEB92E00E94E8029C0160
:100E8000E4E035952795EA95E1F72F703327922F07
:100E9000990F990F622E691A660C680E8AEF8A0DF7
:100EA00061E08C3008F460E08AE00E94F30144E6DF
:100EB00050E060E071E0C8010E948A082AE08A2DB3
:100EC000622F0E94780840E3480F50E3590F8C2DA1
:100ED0000E94780820E3222E280E905DA6969FAFF0
:100EE000A6978D2D0E94780830E3D32ED80E70E39C
:100EF000C72EC90E8B2D0E947808E0E3BE2EB80ED7
:100F0000F0E3AF2EA90E892D0E947808A0E39A2E57
:100F1000980EB0E38B2E890E862D0E947808805D96
:100F2000905DF801D8010D900020E9F79D01201B8C
:100F3000310B22503109BF01601B710B621773071F
:100F400008F0C5C02081283629F42181283611F403
:100F50004083518320812D3641F421812D3629F49F
:100F60002082A696BFADA697B1832081233729F4AE
:100F70002181233711F4D082C1822081243429F4C5
:100F80002181243411F4B082A18220812D3429F4EE
:100F900021812D3411F4908281822081293541F400
:100FA0002381293509F08CC050827182828393831A
:100FB0003196B8CF87E591E00E949A02182F8FE40E
:100FC00091E00E949A02E82E82E591E00E949A0246
:100FD000F82E8AE591E00E949A02D82E8DE591E0E4
:100FE0000E949A02C82E80E691E00E949A02B82ED2
:100FF0000093FD011092FE011092200260E08EEB42
:1010000092E00E942F030AE08B2D602F0E94780847
:10101000682F660F680F660F6B0D8EEB92E00E94D3
:101020002F038C2D602F0E947808682F660F680FA1
:10103000660F6C0D8EEB92E00E942F038D2D602FBA
:101040000E947808682F660F680F660F6D0D8EEB93
:1010500092E00E942F0360E08EEB92E00E942F034B
:101060008E2D602F0E947808682F660F680F660F1C
:101070006E0D8EEB92E00E942F038F2D602F0E9449
:101080007808682F660F680F660F6F0D8EEB92E081
:101090000E942F03812F602F0E947808682F660F0F
:1010A000680F660F610F8EEB92E00E942F0360E0E5
:1010B0008EEB92E00E942F0381E00E94870055CEC4
:1010C0002181293509F074CF8083918371CFC801C4
:1010D0000E9461030E946402E114F10409F454CEF9
:1010E0000E945001882309F44FCE0E9400004CCE8C
:1010F000991B79E004C0991F961708F0961B881F6A
:101100007A95C9F780950895EE0FFF1F0590F49129
:10111000E02D0994FB01DC014150504048F0019062
:101120000D920020C9F701C01D9241505040E0F7D8
:061130000895F894FFCFC2
:1011360044442E4D4D2E595959592068683A6D6DC3
:101146003A73730000000000008601E6001301D325
:1011560001440122013601000000002F0302035E54
:1011660003D802FB02E802D9020D0A0052544320BA
:101176006973204E4F542072756E6E696E67003229
:10118600332E30342E323032300030362E30302E80
:0411960030300000F5
:107E0000112484B714BE81FFF0D085E080938100F7
:107E100082E08093C00088E18093C10086E0809377
:107E2000C20080E18093C4008EE0C9D0259A86E02C
:107E300020E33CEF91E0309385002093840096BBD3
:107E4000B09BFECF1D9AA8958150A9F7CC24DD24C4
:107E500088248394B5E0AB2EA1E19A2EF3E0BF2EE7
:107E6000A2D0813461F49FD0082FAFD0023811F036
:107E7000013811F484E001C083E08DD089C08234E0
:107E800011F484E103C0853419F485E0A6D080C0E4
:107E9000853579F488D0E82EFF2485D0082F10E0AE
:107EA000102F00270E291F29000F111F8ED06801E7
:107EB0006FC0863521F484E090D080E0DECF843638
:107EC00009F040C070D06FD0082F6DD080E0C81688
:107ED00080E7D80618F4F601B7BEE895C0E0D1E017
:107EE00062D089930C17E1F7F0E0CF16F0E7DF06D8
:107EF00018F0F601B7BEE89568D007B600FCFDCFD4
:107F0000A601A0E0B1E02C9130E011968C91119780
:107F100090E0982F8827822B932B1296FA010C0160
:107F200087BEE89511244E5F5F4FF1E0A038BF0790
:107F300051F7F601A7BEE89507B600FCFDCF97BE46
:107F4000E89526C08437B1F42ED02DD0F82E2BD052
:107F50003CD0F601EF2C8F010F5F1F4F84911BD097
:107F6000EA94F801C1F70894C11CD11CFA94CF0C13
:107F7000D11C0EC0853739F428D08EE10CD085E9AC
:107F80000AD08FE07ACF813511F488E018D01DD067
:107F900080E101D065CF982F8091C00085FFFCCF94
:107FA0009093C60008958091C00087FFFCCF809118
:107FB000C00084FD01C0A8958091C6000895E0E648
:107FC000F0E098E1908380830895EDDF803219F02E
:107FD00088E0F5DFFFCF84E1DECF1F93182FE3DFCA
:107FE0001150E9F7F2DF1F91089580E0E8DFEE27F6
:047FF000FF270994CA
:027FFE00040479
:0400000300007E007B
:00000001FF
