:100000000C9435000C945D000C945D000C945D0024
:100010000C945D000C945D000C945D000C945D00EC
:100020000C945D000C945D000C945D000C945D00DC
:100030000C945D000C945D000C945D000C945D00CC
:100040000C9457030C945D000C9425030C94FF0250
:100050000C945D000C945D000C945D000C945D00AC
:100060000C945D000C945D00D50411241FBECFEFED
:10007000D8E0DEBFCDBF11E0A0E0B1E0E0EDFEE0F2
:1000800002C005900D92A035B107D9F721E0A0E597
:10009000B1E001C01D92AA3FB207E1F710E0C5E34D
:1000A000D0E004C02197FE010E946007C433D1074D
:1000B000C9F70E94A1030C9466070C940000AF924C
:1000C000BF92CF92DF92EF92FF920F931F93CF9345
:1000D000DF936C017B018B01040F151FEB015E01A7
:1000E000AE18BF08C017D10759F06991D601ED913C
:1000F000FC910190F081E02DC6010995892B79F7DB
:10010000C501DF91CF911F910F91FF90EF90DF908C
:10011000CF90BF90AF900895FC01538D448D252F53
:1001200030E0842F90E0821B930B541710F0CF9691
:10013000089501970895FC01918D828D981761F0C3
:10014000A28DAE0FBF2FB11D5D968C91928D9F5FDA
:100150009F73928F90E008958FEF9FEF0895FC01B9
:10016000918D828D981731F0828DE80FF11D858D6C
:1001700090E008958FEF9FEF0895FC01918D228DFF
:10018000892F90E0805C9F4F821B91098F73992784
:1001900008958DE591E00E94BD0021E0892B09F4CE
:1001A00020E0822F089580E090E0892B29F00E94C2
:1001B000C90081110C9400000895FC01A48DA80FC2
:1001C000B92FB11DA35ABF4F2C91848D90E0019699
:1001D0008F739927848FA689B7892C93A089B189B9
:1001E0008C91837080648C93938D848D981306C05A
:1001F0000288F389E02D80818F7D80830895EF92BE
:10020000FF920F931F93CF93DF93EC0181E0888FD0
:100210009B8D8C8D98131AC0E889F989808185FFA0
:1002200015C09FB7F894EE89FF896083E889F98942
:1002300080818370806480839FBF81E090E0DF9144
:10024000CF911F910F91FF90EF900895F62E0B8D97
:1002500010E00F5F1F4F0F731127E02E8C8D8E1152
:100260000CC00FB607FCFACFE889F989808185FFB9
:10027000F5CFCE010E94DD00F1CFEB8DEC0FFD2F0D
:10028000F11DE35AFF4FF0829FB7F8940B8FEA8974
:10029000FB8980818062CFCFCF93DF93EC01888D83
:1002A0008823B9F0AA89BB89E889F9898C9185FDF1
:1002B00003C0808186FD0DC00FB607FCF7CF8C917F
:1002C00085FFF2CF808185FFEDCFCE010E94DD005A
:1002D000E9CFDF91CF9108953FB7F8948091550110
:1002E00090915601A0915701B091580126B5A89B55
:1002F00005C02F3F19F00196A11DB11D3FBFBA2FB8
:10030000A92F982F8827BC01CD01620F711D811D77
:10031000911D42E0660F771F881F991F4A95D1F7FC
:1003200008958F929F92AF92BF92CF92DF92EF92F9
:10033000FF926B017C010E946C014B015C01C114B6
:10034000D104E104F104B9F00E946C016819790943
:100350008A099B09683E73408105910580F321E07D
:10036000C21AD108E108F10888EE880E83E0981ED1
:10037000A11CB11CE4CFFF90EF90DF90CF90BF9015
:10038000AF909F908F900895FC0101900020E9F7B5
:100390003197AF01481B590BBC018DE591E00C94DE
:1003A0005F008F929F92AF92BF920F931F93CF9354
:1003B000DF93CDB7DEB7A1970FB6F894DEBF0FBEBF
:1003C000CDBF19A2423008F44AE08E010F5D1F4FE5
:1003D000842E912CB12CA12CA50194010E943E07E2
:1003E000E62FB901CA01EA30F4F4E05DD801EE93DA
:1003F0008D01232B242B252B79F790E080E010979B
:1004000019F0CD010E94C401A1960FB6F894DEBF89
:100410000FBECDBFDF91CF911F910F91BF90AF90D5
:100420009F908F900895E95CE1CFCF93DF930E9476
:10043000C401EC0182E191E00E94C4018C0F9D1F78
:10044000DF91CF9108954F925F926F927F928F923A
:100450009F92AF92BF92CF92DF92EF92FF920F9353
:100460001F93CF936B017C01742EAC019B010E9402
:100470003907882399F085E191E0CF911F910F9181
:10048000FF90EF90DF90CF90BF90AF909F908F90B4
:100490007F906F905F904F900C94C401460157017C
:1004A000E894B7F82FEF3FEF4FE75FE7C501B401DE
:1004B0000E94390781110DC02FEF3FEF4FE75FE733
:1004C000C501B4010E946F0518161CF489E191E082
:1004D000D4CF2FEF3FEF4FE75FE4C701B6010E9493
:1004E000C70618161CF48DE191E0C7CF2FEF3FEF40
:1004F0004FE75FECC701B6010E946F0587FDF3CFA0
:1005000020E030E0A901C701B6010E946F0510E0AC
:1005100000E087FF0AC06DE28DE591E00E94FF00D8
:100520008C01F7FAF094F7F8F094C0E060E070E026
:1005300080E09FE37C1641F020E030E040E251E4AF
:100540000E947405CF5FF6CFA70196010E940305B4
:100550002B013C010E94E6054B015C014AE00E9430
:10056000D1017C01E00EF11ECC23C1F1C501B40123
:100570000E9415069B01AC01C301B2010E94020555
:100580004B015C016EE28DE591E00E94FF00E80EF8
:10059000F91EC15018F120E030E040E251E4C501FD
:1005A000B4010E94CC062B013C010E94E6054B01E0
:1005B000B12CA12C4AE0C501B4010E94D101E80E82
:1005C000F91EC501B4010E9415069B01AC01C301CF
:1005D000B2010E9402054B015C01DBCFC701CF9144
:1005E0001F910F91FF90EF90DF90CF90BF90AF9051
:1005F0009F908F907F906F905F904F9008951F9283
:100600000F920FB60F9211242F933F934F935F9346
:100610006F937F938F939F93AF93BF93EF93FF93CA
:100620008DE591E00E94DD00FF91EF91BF91AF91C8
:100630009F918F917F916F915F914F913F912F91FA
:100640000F900FBE0F901F9018951F920F920FB62C
:100650000F9211242F938F939F93EF93FF93E09129
:100660006D01F0916E018081E0917301F091740150
:1006700082FD1BC09081809176018F5F8F732091E6
:100680007701821741F0E0917601F0E0E35AFE4FE6
:10069000958F80937601FF91EF919F918F912F918C
:1006A0000F900FBE0F901F9018958081F4CF1F926E
:1006B0000F920FB60F9211242F933F938F939F9316
:1006C000AF93BF938091510190915201A09153013A
:1006D000B09154013091500123E0230F2D3758F58C
:1006E0000196A11DB11D209350018093510190935B
:1006F0005201A0935301B093540180915501909100
:100700005601A0915701B09158010196A11DB11D4C
:100710008093550190935601A0935701B0935801CF
:10072000BF91AF919F918F913F912F910F900FBEED
:100730000F901F90189526E8230F0296A11DB11D5A
:10074000D2CF789484B5826084BD84B5816084BD45
:1007500085B5826085BD85B5816085BD80916E005F
:10076000816080936E001092810080918100826090
:1007700080938100809181008160809381008091CD
:1007800080008160809380008091B10084608093BC
:10079000B1008091B00081608093B00080917A00B8
:1007A000846080937A0080917A00826080937A00DE
:1007B00080917A00816080937A0080917A008068CD
:1007C00080937A001092C100E0916D01F0916E016A
:1007D00082E08083E0916901F0916A011082E091EA
:1007E0006B01F0916C018FEC808310927501E091A8
:1007F0007101F091720186E08083E0916F01F091C8
:100800007001808180618083E0916F01F0917001BF
:10081000808188608083E0916F01F0917001808118
:1008200080688083E0916F01F091700180818F7DFD
:10083000808310E4C0E0D0E010937C0080917A00C7
:10084000806480937A0080917A0086FDFCCF80914D
:10085000780060917900762F682F072E000C880BA6
:10086000990B0E9417066093590170935A01809367
:100870005B0190935C0181E291E00E94C401609170
:10088000590170915A0180915B0190915C0142E0A5
:100890000E94230282E191E00E94C4018BE291E078
:1008A0000E94150268EE73E080E090E00E949101E2
:1008B00020E030E04AEF5EE36091590170915A0107
:1008C00080915B0190915C010E94CC06609359017C
:1008D00070935A0180935B0190935C018DE291E0EB
:1008E0000E94C4016091590170915A0180915B018D
:1008F00090915C0142E00E94230287E391E00E9414
:1009000015028BE291E00E94150268EE73E080E030
:1009100090E00E94910120E030E040E151E46091DC
:10092000590170915A0180915B0190915C010E9484
:10093000CC0620E030E040EA50E40E94740520E05C
:1009400030E040E052E40E94030560935901709347
:100950005A0180935B0190935C018DE391E00E94CA
:10096000C4016091590170915A0180915B0190918D
:100970005C0142E00E9423028AE491E00E94150299
:100980008BE291E00E94150268EE73E080E090E057
:100990000E949101209709F44FCF0E94C90088233B
:1009A00009F44ACF0E94000047CFEDE5F1E0138241
:1009B000128288EE93E0A0E0B0E084839583A68362
:1009C000B78384E091E09183808385EC90E0958704
:1009D000848784EC90E09787868780EC90E0918B09
:1009E000808B81EC90E0938B828B82EC90E0958BF6
:1009F000848B86EC90E0978B868B118E128E138EF3
:100A0000148E08955058BB27AA270E941A050C94EB
:100A10008D060E947F0638F00E94860620F039F489
:100A20009F3F19F426F40C947C060EF4E095E7FB46
:100A30000C947606E92F0E949E0658F3BA176207B7
:100A400073078407950720F079F4A6F50C94C00687
:100A50000EF4E0950B2EBA2FA02D0B01B9019001D9
:100A60000C01CA01A0011124FF27591B99F0593F1D
:100A700050F4503E68F11A16F040A22F232F342F65
:100A80004427585FF3CF469537952795A795F040B3
:100A90005395C9F77EF41F16BA0B620B730B840BC8
:100AA000BAF09150A1F0FF0FBB1F661F771F881F80
:100AB000C2F70EC0BA0F621F731F841F48F48795D8
:100AC00077956795B795F7959E3F08F0B0CF9395CA
:100AD000880F08F09927EE0F9795879508950E9443
:100AE000520608F481E008950E9488050C948D0652
:100AF0000E94860658F00E947F0640F029F45F3F6E
:100B000029F00C94760651110C94C1060C947C06C5
:100B10000E949E0668F39923B1F3552391F3951B28
:100B2000550BBB27AA2762177307840738F09F5F0E
:100B30005F4F220F331F441FAA1FA9F335D00E2E7B
:100B40003AF0E0E832D091505040E695001CCAF7E8
:100B50002BD0FE2F29D0660F771F881FBB1F2617AB
:100B600037074807AB07B0E809F0BB0B802DBF0182
:100B7000FF2793585F4F3AF09E3F510578F00C9451
:100B800076060C94C1065F3FE4F3983ED4F3869555
:100B900077956795B795F7959F5FC9F7880F911D72
:100BA0009695879597F90895E1E0660F771F881F5E
:100BB000BB1F621773078407BA0720F0621B730B11
:100BC000840BBA0BEE1F88F7E09508950E94A606E5
:100BD00088F09F5798F0B92F9927B751B0F0E1F0FE
:100BE000660F771F881F991F1AF0BA95C9F714C0AE
:100BF000B13091F00E94C006B1E008950C94C00697
:100C0000672F782F8827B85F39F0B93FCCF38695E6
:100C100077956795B395D9F73EF490958095709543
:100C200061957F4F8F4F9F4F0895E89409C097FBC0
:100C30003EF490958095709561957F4F8F4F9F4FB3
:100C40009923A9F0F92F96E9BB279395F6958795F7
:100C500077956795B795F111F8CFFAF4BB0F11F4BA
:100C600060FF1BC06F5F7F4F8F4F9F4F16C0882361
:100C700011F096E911C0772321F09EE8872F762F97
:100C800005C0662371F096E8862F70E060E02AF0D8
:100C90009A95660F771F881FDAF7880F96958795C4
:100CA00097F90895990F0008550FAA0BE0E8FEEF99
:100CB00016161706E807F907C0F012161306E40720
:100CC000F50798F0621B730B840B950B39F40A2619
:100CD00061F0232B242B252B21F408950A2609F4F7
:100CE000A140A6958FEF811D811D089597F99F67FB
:100CF00080E870E060E008959FEF80EC08950024A4
:100D00000A941616170618060906089500240A9470
:100D100012161306140605060895092E0394000CF6
:100D200011F4882352F0BB0F40F4BF2B11F460FF85
:100D300004C06F5F7F4F8F4F9F4F089557FD9058AE
:100D4000440F551F59F05F3F71F04795880F97FB8F
:100D5000991F61F09F3F79F0879508951216130649
:100D60001406551FF2CF4695F1DF08C01616170678
:100D70001806991FF1CF86957105610508940895AD
:100D8000E894BB2766277727CB0197F908950E943F
:100D9000520608F48FEF08950E94DF060C948D062A
:100DA0000E947F0638F00E94860620F0952311F0FD
:100DB0000C9476060C947C0611240C94C1060E94B7
:100DC0009E0670F3959FC1F3950F50E0551F629FEB
:100DD000F001729FBB27F00DB11D639FAA27F00D94
:100DE000B11DAA1F649F6627B00DA11D661F829FBB
:100DF0002227B00DA11D621F739FB00DA11D621FA0
:100E0000839FA00D611D221F749F3327A00D611DBC
:100E1000231F849F600D211D822F762F6A2F11249E
:100E20009F5750409AF0F1F088234AF0EE0FFF1FD1
:100E3000BB1F661F771F881F91505040A9F79E3F28
:100E4000510580F00C9476060C94C1065F3FE4F3E4
:100E5000983ED4F3869577956795B795F795E7957E
:100E60009F5FC1F7FE2B880F911D9695879597F987
:100E700008950E945206880B990B0895A1E21A2E3C
:100E8000AA1BBB1BFD010DC0AA1FBB1FEE1FFF1F2E
:100E9000A217B307E407F50720F0A21BB30BE40B7E
:100EA000F50B661F771F881F991F1A9469F76095C5
:100EB0007095809590959B01AC01BD01CF0108957F
:100EC000EE0FFF1F0590F491E02D0994F894FFCFE9
:100ED00000000000FF005F008C004C01BD009B0083
:100EE000AF000D0A006E616E00696E66006F766677
:100EF0000054454D5020444154413A200043454C54
:100F0000534955533A2000646567204300464148E1
:100F100052454E484549543A2000646567204600D2
:00000001FF
