:100000000C945D000C9485000C9485000C94850084
:100010000C9485000C9485000C9485000C9485004C
:100020000C9485000C9485000C9485000C94F301CD
:100030000C9485000C9485000C9485000C9485002C
:100040000C94A9010C9485000C9485000C948500F7
:100050000C9485000C9485000C9485000C9485000C
:100060000C9485000C94850000000008000201003B
:100070000003040700000000000000000000000072
:10008000250028002B0000000000240027002A0083
:10009000040404040404040402020202020203032E
:1000A0000303030301020408102040800102040836
:1000B0001020010204081020970311241FBECFEF67
:1000C000D8E0DEBFCDBF11E0A0E0B1E0E2E5F8E0AE
:1000D00002C005900D92A030B107D9F721E0A0E051
:1000E000B1E001C01D92A433B207E1F710E0CDE505
:1000F000D0E004C02197FE010E942104CC35D10735
:10010000C9F70E94AF020C9427040C940000CF9210
:10011000DF92EF92FF92DC01A03282E0B807D4F5C3
:10012000A53BB10514F0A4EBB0E04091320128E802
:1001300030E0241B310947FD3395220F331F220F76
:10014000331F6901330FEE08FF084091330128E5A2
:1001500032E0241B310947FD3395220F331F220F54
:10016000331F032E000C440B550B2C193D094E096F
:100170005F09B7FF02C0B0E0A0E00E94DC0324EBFF
:1001800030E040E050E00E94B203C20ED31EE41EF5
:10019000F51ED601E0913101EC3080F5209132015D
:1001A00088E890E0821B910927FD9395880F991F9D
:1001B000880F991FA817B90784F02091330188E5AB
:1001C00092E0821B910927FD9395880F991F880F54
:1001D000991FA817B9070CF4CD010297880F991F32
:1001E0004FB7F8942E2F30E0F901EE0FFF1FE20F0A
:1001F000F31FE35FFE4F928381834FBFFF90EF9029
:10020000DF90CF90089590E0FC01E859FF4F2491D2
:10021000FC01EC55FF4F3491FC01E057FF4FE49196
:10022000EE23C9F0222339F0233001F1A8F4213064
:1002300019F1223029F1F0E0EE0FFF1FE458FF4FD3
:10024000A591B4918FB7F894EC91611126C03095C7
:100250003E233C938FBF08952730A9F02830C9F082
:10026000243049F7809180008F7D03C08091800009
:100270008F7780938000DFCF84B58F7784BDDBCF0D
:1002800084B58F7DFBCF8091B0008F778093B000D5
:10029000D2CF8091B0008F7DF9CF3E2BDACF3FB720
:1002A000F8948091070190910801A0910901B09103
:1002B0000A0126B5A89B05C02F3F19F00196A11D84
:1002C000B11D3FBFBA2FA92F982F8827BC01CD01A0
:1002D000620F711D811D911D42E0660F771F881FFF
:1002E000991F4A95D1F708958F929F92AF92BF922E
:1002F000CF92DF92EF92FF920E944F014B015C017F
:100300008FE0C82ED12CE12CF12C0E944F016819EE
:1003100079098A099B09683E734081059105A8F314
:1003200021E0C21AD108E108F10888EE880E83E0C6
:10033000981EA11CB11CC114D104E104F10429F7D9
:10034000FF90EF90DF90CF90BF90AF909F908F90F5
:1003500008951F920F920FB60F9211242F933F937F
:100360008F939F93AF93BF9380910301909104016A
:10037000A0910501B09106013091020123E0230F05
:100380002D3758F50196A11DB11D209302018093D0
:10039000030190930401A0930501B093060180919D
:1003A000070190910801A0910901B0910A010196FD
:1003B000A11DB11D8093070190930801A09309012D
:1003C000B0930A01BF91AF919F918F913F912F916F
:1003D0000F900FBE0F901F90189526E8230F0296DE
:1003E000A11DB11DD2CF1F920F920FB60F921124F3
:1003F0002F933F934F935F936F937F938F939F932D
:10040000AF93BF93CF93DF93EF93FF93809101015D
:10041000C0910001D0E087FF24C0109285001092A7
:100420008400809101018F5F80930101809101011F
:10043000082E000C990B8C179D0724F48091010164
:100440008C30C4F1809184009091850004968034B2
:100450009C4908F47AC080918400909185000496AC
:1004600076C080910101082E000C990B8C179D0716
:10047000C4F6E09101018E2FEE0F990BFC01EE0FF7
:10048000FF1FE80FF91FE35FFE4F808186FFC9CF92
:10049000E09101018E2FEE0F990BFC01EE0FFF1F73
:1004A000E80FF91FE35FFE4F808160E08F730E94C9
:1004B0000301B7CF2091840030918500E0910101C4
:1004C0008E2FEE0F990BFC01EE0FFF1FE80FF91FA7
:1004D000E35FFE4F81819281820F931F9093890089
:1004E00080938800E09101018E2FEE0F990BFC01A3
:1004F000EE0FFF1FE80FF91FE35FFE4F808186FFBD
:1005000011C0E09101018E2FEE0F990BFC01EE0F4F
:10051000FF1FE80FF91FE35FFE4F808161E08F73DB
:100520000E940301FF91EF91DF91CF91BF91AF91B5
:100530009F918F917F916F915F914F913F912F91FB
:100540000F900FBE0F901F90189580E49CE9909338
:100550008900809388008FEF80930101E3CF789426
:1005600084B5826084BD84B5816084BD85B58260B8
:1005700085BD85B5816085BD80916E008160809369
:100580006E001092810080918100826080938100D2
:1005900080918100816080938100809180008160E2
:1005A000809380008091B10084608093B10080913D
:1005B000B00081608093B00080917A008460809365
:1005C0007A0080917A00826080937A0080917A002C
:1005D000816080937A0080917A00806880937A00AD
:1005E0001092C100809131018C3008F068C0EAEAB5
:1005F000F0E02491E6E9F0E08491882399F090E01E
:10060000880F991FFC01EA57FF4FA591B491FC0197
:10061000E458FF4F859194918FB7F894EC91E22BB9
:10062000EC938FBF80913101282F30E0F901EE0F5C
:10063000FF1FE20FF31FE35FFE4F9081907C9660F7
:10064000908310923201109233012CE0622F0E94AD
:100650001504829FB001112430E020E0AB01420F6D
:10066000531FFA01EE0FFF1FE40FF51FE35FFE4F6C
:10067000908196FD16C02F5F3F4F2C30310571F7EA
:1006800081110FC01092800082E08093810010924F
:10069000850010928400B19A80916F0082608093EF
:1006A0006F00E09131018E2F90E0FC01EE0FFF1FF3
:1006B000E80FF91FE35FFE4F80818064808304EBC5
:1006C00010E080E0E82E80E0F82E10920C011092ED
:1006D0000B01C0910B01D0910C01C43BD1055CF41E
:1006E000CE010E9487000E9474012196D0930C01D4
:1006F000C0930B01EECF10930C0100930B01C0913E
:100700000B01D0910C011C161D065CF4CE010E9459
:1007100087000E9474012197D0930C01C0930B01B4
:10072000EECFE114F10489F20E940000CECF809157
:1007300000018C3098F491E0980F90930001809321
:10074000310190E0FC01EE0FFF1FE80FF91FE35F9E
:10075000FE4F88EB9BE09283818308958FEF809317
:1007600031010895052E97FB1EF400940E94C903E1
:1007700057FD07D00E94E40307FC03D04EF40C940D
:10078000C90350954095309521953F4F4F4F5F4F8E
:10079000089590958095709561957F4F8F4F9F4FED
:1007A00008950E940604A59F900DB49F900DA49FEC
:1007B000800D911D11240895B7FF0C94D1030E9460
:1007C000D103821B930B0895A1E21A2EAA1BBB1B17
:1007D000FD010DC0AA1FBB1FEE1FFF1FA217B3070D
:1007E000E407F50720F0A21BB30BE40BF50B661F23
:1007F000771F881F991F1A9469F7609570958095E7
:1008000090959B01AC01BD01CF010895A29FB0015D
:10081000B39FC001A39F700D811D1124911DB29F34
:10082000700D811D1124911D0895991B79E004C05C
:10083000991F961708F0961B881F7A95C9F780951F
:100840000895EE0FFF1F0590F491E02D0994F894A0
:02085000FFCFD8
:107E0000112484B714BE81FFF0D085E080938100F7
:107E100082E08093C00088E18093C10086E0809377
:107E2000C20080E18093C4008EE0C9D0259A86E02C
:107E300020E33CEF91E0309385002093840096BBD3
:107E4000B09BFECF1D9AA8958150A9F7CC24DD24C4
:107E500088248394B5E0AB2EA1E19A2EF3E0BF2EE7
:107E6000A2D0813461F49FD0082FAFD0023811F036
:107E7000013811F484E001C083E08DD089C08234E0
:107E800011F484E103C0853419F485E0A6D080C0E4
:107E9000853579F488D0E82EFF2485D0082F10E0AE
:107EA000102F00270E291F29000F111F8ED06801E7
:107EB0006FC0863521F484E090D080E0DECF843638
:107EC00009F040C070D06FD0082F6DD080E0C81688
:107ED00080E7D80618F4F601B7BEE895C0E0D1E017
:107EE00062D089930C17E1F7F0E0CF16F0E7DF06D8
:107EF00018F0F601B7BEE89568D007B600FCFDCFD4
:107F0000A601A0E0B1E02C9130E011968C91119780
:107F100090E0982F8827822B932B1296FA010C0160
:107F200087BEE89511244E5F5F4FF1E0A038BF0790
:107F300051F7F601A7BEE89507B600FCFDCF97BE46
:107F4000E89526C08437B1F42ED02DD0F82E2BD052
:107F50003CD0F601EF2C8F010F5F1F4F84911BD097
:107F6000EA94F801C1F70894C11CD11CFA94CF0C13
:107F7000D11C0EC0853739F428D08EE10CD085E9AC
:107F80000AD08FE07ACF813511F488E018D01DD067
:107F900080E101D065CF982F8091C00085FFFCCF94
:107FA0009093C60008958091C00087FFFCCF809118
:107FB000C00084FD01C0A8958091C6000895E0E648
:107FC000F0E098E1908380830895EDDF803219F02E
:107FD00088E0F5DFFFCF84E1DECF1F93182FE3DFCA
:107FE0001150E9F7F2DF1F91089580E0E8DFEE27F6
:047FF000FF270994CA
:027FFE00040479
:0400000300007E007B
:00000001FF
