:100000000C9462000C948A000C948A000C948A0070
:100010000C948A000C948A000C948A000C948A0038
:100020000C948A000C948A000C948A000C948A0028
:100030000C948A000C948A000C948A000C948A0018
:100040000C9493030C948A000C9461030C943B036E
:100050000C948A000C948A000C948A000C948A00F8
:100060000C948A000C948A000000000024002700F1
:100070002A0000000000250028002B0000000000DE
:1000800023002600290004040404040404040202DA
:100090000202020203030303030301020408102007
:1000A0004080010204081020010204081020000012
:1000B0000008000201000003040700000000000027
:1000C0000000DD0311241FBECFEFD8E0DEBFCDBF9F
:1000D00011E0A0E0B1E0E2EDFBE002C005900D927E
:1000E000A033B107D9F721E0A0E3B1E001C01D9230
:1000F000A93EB207E1F710E0C2E6D0E004C02197C4
:10010000FE010E94E105C136D107C9F70E9419041A
:100110000C94E7050C940000AF92BF92CF92DF924F
:10012000EF92FF920F931F93CF93DF936C017B01AC
:100130008B01040F151FEB015E01AE18BF08C0173D
:10014000D10759F06991D601ED91FC910190F081B0
:10015000E02DC6010995892B79F7C501DF91CF9173
:100160001F910F91FF90EF90DF90CF90BF90AF90D5
:100170000895FC01538D448D252F30E0842F90E0AD
:10018000821B930B541710F0CF9608950197089592
:10019000FC01918D828D981761F0A28DAE0FBF2F5B
:1001A000B11D5D968C91928D9F5F9F73928F90E0B1
:1001B00008958FEF9FEF0895FC01918D828D981720
:1001C00031F0828DE80FF11D858D90E008958FEF5D
:1001D0009FEF0895FC01918D228D892F90E0805C26
:1001E0009F4F821B91098F739927089581E491E0B5
:1001F0000E94EA0021E0892B09F420E0822F089573
:1002000080E090E0892B29F00E94F60081110C9487
:1002100000000895FC01A48DA80FB92FB11DA35AA9
:10022000BF4F2C91848D90E001968F739927848F16
:10023000A689B7892C93A089B1898C918370806439
:100240008C93938D848D981306C00288F389E02DDA
:1002500080818F7D80830895EF92FF920F931F938B
:10026000CF93DF93EC0181E0888F9B8D8C8D981369
:100270001AC0E889F989808185FF15C09FB7F89475
:10028000EE89FF896083E889F989808183708064C1
:1002900080839FBF81E090E0DF91CF911F910F910C
:1002A000FF90EF900895F62E0B8D10E00F5F1F4F1B
:1002B0000F731127E02E8C8D8E110CC00FB607FC2A
:1002C000FACFE889F989808185FFF5CFCE010E94B8
:1002D0000A01F1CFEB8DEC0FFD2FF11DE35AFF4F1B
:1002E000F0829FB7F8940B8FEA89FB898081806246
:1002F000CFCFCF93DF93EC01888D8823B9F0AA8903
:10030000BB89E889F9898C9185FD03C0808186FDD0
:100310000DC00FB607FCF7CF8C9185FFF2CF80811F
:1003200085FFEDCFCE010E940A01E9CFDF91CF9189
:100330000895833081F028F4813099F08230A9F05B
:1003400008958730A9F08830C9F08430B1F48091E5
:1003500080008F7D03C0809180008F778093800024
:10036000089584B58F7784BD089584B58F7DFBCFC4
:100370008091B0008F778093B00008958091B00095
:100380008F7DF9CF1F93CF93DF93282F30E0F901B2
:10039000E255FF4F8491F901E656FF4FD491F901E0
:1003A000EA57FF4FC491CC23A9F0162F81110E9468
:1003B0009901EC2FF0E0EE0FFF1FEE58FF4FA591D3
:1003C000B4918FB7F894EC91111108C0D095DE2349
:1003D000DC938FBFDF91CF911F910895DE2BF8CF73
:1003E000CF93DF9390E0FC01E656FF4F24918A57AC
:1003F0009F4FFC0184918823D1F090E0880F991FD2
:10040000FC01E859FF4FA591B491FC01EE58FF4F54
:10041000C591D49161110EC09FB7F8948C91E22FD1
:10042000E0958E238C932881E223E8839FBFDF91A0
:10043000CF9108958FB7F894EC91E22BEC938FBF96
:10044000F6CFCF93DF93CEEDD1E060E08A810E94BA
:10045000C20161E08A810E94F00160E088810E940F
:10046000C20161E088810E94F00161E089810E94FF
:10047000F00161E08A810E94C2018BE090E0019767
:10048000F1F7DF91CF9108953FB7F894809135014E
:1004900090913601A0913701B091380126B5A89B03
:1004A00005C02F3F19F00196A11DB11D3FBFBA2F06
:1004B000A92F982F8827BC01CD01620F711D811DC6
:1004C000911D42E0660F771F881F991F4A95D1F74B
:1004D00008958F929F92AF92BF92CF92DF92EF9248
:1004E000FF920E9444024B015C0188EEC82E83E01B
:1004F000D82EE12CF12C0E944402681979098A094E
:100500009B09683E734081059105A8F321E0C21A5A
:10051000D108E108F10888EE880E83E0981EA11C3E
:10052000B11CC114D104E104F10429F7FF90EF904C
:10053000DF90CF90BF90AF909F908F900895FF92E3
:100540000F931F93CF93DF93F62ED0E0C0E0082FD8
:1005500010E0B8010C2E02C0759567950A94E2F779
:1005600061708091DF010E94C20161E08091DE0133
:100570000E94C20160E0FF2089F0C730D10571F40C
:100580008091DF010E94F0012196C830D10509F762
:10059000DF91CF911F910F91FF9008958091DE011F
:1005A0000E94C201F1CFCF93C82F0E94210260E0C8
:1005B0008C2F0E949F0260E080E00E949F0260E01A
:1005C0008091E0010E94C2018BE090E00197F1F779
:1005D000CF910895FC0101900020E9F73197AF0118
:1005E000481B590BBC0181E491E00C948C008F9264
:1005F0009F92AF92BF920F931F93CF93DF93CDB78C
:10060000DEB7A1970FB6F894DEBF0FBECDBF19A21B
:10061000423008F44AE08E010F5D1F4F842E912C6A
:10062000B12CA12CA50194010E94BF05E62FB901B0
:10063000CA01EA30F4F4E05DD801EE938D01232B7A
:10064000242B252B79F790E080E0109719F0CD014D
:100650000E94EA02A1960FB6F894DEBF0FBECDBF8E
:10066000DF91CF911F910F91BF90AF909F908F908E
:100670000895E95CE1CF1F920F920FB60F921124FB
:100680002F933F934F935F936F937F938F939F939A
:10069000AF93BF93EF93FF9381E491E00E940A012F
:1006A000FF91EF91BF91AF919F918F917F916F914A
:1006B0005F914F913F912F910F900FBE0F901F9020
:1006C00018951F920F920FB60F9211242F938F93AC
:1006D0009F93EF93FF93E0915101F091520180813C
:1006E000E0915701F091580182FD1BC090818091EB
:1006F0005A018F5F8F7320915B01821741F0E09167
:100700005A01F0E0EF5BFE4F958F80935A01FF9105
:10071000EF919F918F912F910F900FBE0F901F908F
:1007200018958081F4CF1F920F920FB60F9211246B
:100730002F933F938F939F93AF93BF9380913101FA
:1007400090913201A0913301B09134013091300188
:1007500023E0230F2D3758F50196A11DB11D2093DD
:1007600030018093310190933201A0933301B09313
:1007700034018091350190913601A0913701B091FB
:1007800038010196A11DB11D80933501909336016A
:10079000A0933701B0933801BF91AF919F918F9192
:1007A0003F912F910F900FBE0F901F90189526E844
:1007B000230F0296A11DB11DD2CFE1E4F1E0138217
:1007C000128288EE93E0A0E0B0E084839583A68354
:1007D000B78384E091E09183808385EC90E09587F6
:1007E000848784EC90E09787868780EC90E0918BFB
:1007F000808B81EC90E0938B828B82EC90E0958BE8
:10080000848B86EC90E0978B868B118E128E138EE4
:10081000148EEEEDF1E087E0808386E0818385E051
:1008200082838EE890E00E94D30280E990E00C94ED
:10083000D302789484B5826084BD84B5816084BD20
:1008400085B5826085BD85B5816085BD80916E006E
:10085000816080936E00109281008091810082609F
:1008600080938100809181008160809381008091DC
:1008700080008160809380008091B10084608093CB
:10088000B1008091B00081608093B00080917A00C7
:10089000846080937A0080917A00826080937A00ED
:1008A00080917A00816080937A0080917A008068DC
:1008B00080937A001092C100E0915101F0915201B1
:1008C00082E08083E0914D01F0914E011082E09131
:1008D0004F01F09150018FEC808310925901E0910B
:1008E0005501F091560186E08083E0915301F0912B
:1008F0005401808180618083E0915301F091540123
:10090000808188608083E0915301F091540180815F
:1009100080688083E0915301F091540180818F7D44
:1009200080830E946902812C912C540183942BE0D6
:10093000E22EF12C3AE0732E40E0C42E40E0D42E9B
:100940000E94210261E08FEB0E949F0209E311E007
:10095000D0E0C0E0612C61E08091DE010E94C20124
:1009600060E08091DE010E94C2012091DF0130E051
:10097000F901E255FF4F8491F901E656FF4F34909B
:10098000F901EA57FF4F2490222009F4EBC08111AE
:100990000E949901E22DF0E0EE0FFF1FE458FF4F97
:1009A000A591B491EC91D501C4010C2E04C0880F1F
:1009B000991FAA1FBB1F0A94D2F73E2209F4D2C086
:1009C000682A2196C830D10509F0C5CFF801619297
:1009D0008F0181E491E08E179F0709F0B9CF60E0A5
:1009E0008091E0010E94C201C7010197F1F7809157
:1009F0003901982F929597708F70979D800D1124D3
:100A00008093E10180913A01982F929597708F70B1
:100A1000979D800D11248093E20180913B01982FD6
:100A2000929593708F70979D800D11248093E301B0
:100A300080913E0187708093E40180913C01982F62
:100A4000929593708F70979D800D11248093E5018E
:100A500080913D0184FB992790F98F70979D800DBF
:100A600011248093E60180913F01282F22952F7059
:100A70008F7090E0279D800D911D11248053984F19
:100A80009093E8018093E70182E191E00E94EA02FD
:100A90006091E50170E090E080E04AE00E94F7029A
:100AA00088E291E00E94EA026091E60170E090E045
:100AB00080E04AE00E94F70288E291E00E94EA02A8
:100AC0002090E7013090E801032C000C4408550801
:100AD0004AE0C201B10157FE0DC06DE281E491E030
:100AE0000E942C0166277727CB01621973098409BC
:100AF00095094AE00E94F70286E291E00E94EA022C
:100B00006091E30170E090E080E04AE00E94F7022B
:100B10008AE291E00E94EA026091E20170E090E0D6
:100B200080E04AE00E94F7028AE291E00E94EA0235
:100B30006091E10170E090E080E04AE00E94F702FD
:100B40008CE291E00E94EA020E946902C114D10481
:100B500009F4F6CE0E94F600882309F4F1CE0E9433
:100B60000000EECED501C4010C2E04C0880F991FE1
:100B7000AA1FBB1F0A94D2F78095682222CFA1E258
:100B80001A2EAA1BBB1BFD010DC0AA1FBB1FEE1F07
:100B9000FF1FA217B307E407F50720F0A21BB30B52
:100BA000E40BF50B661F771F881F991F1A9469F7CE
:100BB00060957095809590959B01AC01BD01CF012A
:100BC0000895EE0FFF1F0590F491E02D0994F8941D
:020BD000FFCF55
:100BD200000000002C018C00B9007901EA00C80075
:100BE200DC0043757272656E742044617465202F57
:100BF2002054696D653A20002F003A000D0A00006A
:00000001FF
