:100000000C945D000C9485000C9485000C94850084
:100010000C9485000C9485000C9485000C9485004C
:100020000C9485000C9485000C9485000C9485003C
:100030000C9485000C9485000C9485000C9485002C
:100040000C9420040C9485000C94EE030C94C803CB
:100050000C9485000C9485000C9485000C9485000C
:100060000C946A040C948500000000080002010052
:100070000003040700000000000000000000000072
:10008000250028002B0000000000240027002A0083
:10009000040404040404040402020202020203032E
:1000A0000303030301020408102040800102040836
:1000B0001020010204081020890511241FBECFEF73
:1000C000D8E0DEBFCDBF11E0A0E0B1E0E0E4F1E1B7
:1000D00002C005900D92A437B107D9F722E0A4E73A
:1000E000B1E001C01D92AA3DB207E1F710E0CDE5F5
:1000F000D0E004C02197FE010E948908CC35D107C9
:10010000C9F70E94C2050C949E080C940000982F19
:100110002091300281E0213208F043C080910C022E
:100120008111FCCF80912F0232E030930C0290932A
:100130000B029FEF90930A0210920902209308028B
:10014000AFE0B2E0E8EEF1E090E0291331C01092A8
:10015000E7019091E701880F892B8093E701809157
:10016000E601813049F51092E6018091E701809324
:10017000BB008091BC0083FDF8CF85EC8093BC0070
:1001800080910C028230E1F380910A028F3FB1F03E
:1001900080910A028032A1F080910A02803391F0AE
:1001A00084E010920E021092300210920D02089517
:1001B0003D9131939F5FC9CF85EEE0CF80E0F1CFD5
:1001C00082E0EFCF83E0EDCF08950895AF92BF9224
:1001D000CF92DF92EF92FF920F931F93CF93DF9313
:1001E0006C017B018B01040F151FEB015E01AE1842
:1001F000BF08C017D10759F06991D601ED91FC9164
:100200000190F081E02DC6010995892B79F7C50190
:10021000DF91CF911F910F91FF90EF90DF90CF90E2
:10022000BF90AF900895FC01538D448D252F30E091
:10023000842F90E0821B930B541710F0CF960895F3
:1002400001970895FC01918D828D981761F0A28D20
:10025000AE0FBF2FB11D5D968C91928D9F5F9F73E6
:10026000928F90E008958FEF9FEF0895FC01918D9C
:10027000828D981731F0828DE80FF11D858D90E009
:1002800008958FEF9FEF0895FC01918D228D892FA6
:1002900090E0805C9F4F821B91098F73992708958E
:1002A00081E392E00E94440121E0892B09F420E0DF
:1002B000822F089580E090E0892B29F00E94500160
:1002C00081110C9400000895FC01A48DA80FB92F92
:1002D000B11DA35ABF4F2C91848D90E001968F736E
:1002E0009927848FA689B7892C93A089B1898C918D
:1002F000837080648C93938D848D981306C00288DC
:10030000F389E02D80818F7D80830895EF92FF92A5
:100310000F931F93CF93DF93EC0181E0888F9B8D28
:100320008C8D98131AC0E889F989808185FF15C0E2
:100330009FB7F894EE89FF896083E889F989808105
:100340008370806480839FBF81E090E0DF91CF91D4
:100350001F910F91FF90EF900895F62E0B8D10E0F6
:100360000F5F1F4F0F731127E02E8C8D8E110CC065
:100370000FB607FCFACFE889F989808185FFF5CFB0
:10038000CE010E946401F1CFEB8DEC0FFD2FF11D2A
:10039000E35AFF4FF0829FB7F8940B8FEA89FB89ED
:1003A00080818062CFCFCF93DF93EC01888D88234B
:1003B000B9F0AA89BB89E889F9898C9185FD03C0C8
:1003C000808186FD0DC00FB607FCF7CF8C9185FFAD
:1003D000F2CF808185FFEDCFCE010E946401E9CF8D
:1003E000DF91CF91089590E0FC01E859FF4F2491EF
:1003F000FC01EC55FF4F3491FC01E057FF4FE491B5
:10040000EE23C9F0222339F0233001F1A8F4213082
:1004100019F1223029F1F0E0EE0FFF1FE458FF4FF1
:10042000A591B4918FB7F894EC91611126C03095E5
:100430003E233C938FBF08952730A9F02830C9F0A0
:10044000243049F7809180008F7D03C08091800027
:100450008F7780938000DFCF84B58F7784BDDBCF2B
:1004600084B58F7DFBCF8091B0008F778093B000F3
:10047000D2CF8091B0008F7DF9CF3E2BDACF3FB73E
:10048000F8948091BC019091BD01A091BE01B09102
:10049000BF0126B5A89B05C02F3F19F00196A11DED
:1004A000B11D3FBFBA2FA92F982F8827BC01CD01BE
:1004B000620F711D811D911D42E0660F771F881F1D
:1004C000991F4A95D1F708958F929F92AF92BF924C
:1004D000CF92DF92EF92FF920E943F024B015C01AC
:1004E00088EEC82E83E0D82EE12CF12C0E943F022A
:1004F000681979098A099B09683E7340810591054D
:10050000A8F321E0C21AD108E108F10888EE880EAC
:1005100083E0981EA11CB11CC114D104E104F104B4
:1005200029F7FF90EF90DF90CF90BF90AF909F9012
:100530008F900895FC01908190539A3008F090E0DC
:10054000818180532AE0929F800D1124089585EDCA
:100550008093BC008091BC0084FDFCCF10920C0203
:10056000089520919401260F3327331F213231053E
:10057000ECF420910C02FC0190E080E0243069F062
:1005800082E00895A09194012191AC014C585E4FF6
:10059000A40FB52FB11D2C930196861798F3809167
:1005A0009401680F6093940180E0089581E00895BC
:1005B0000895E091C5018091C401E81730F4F0E09E
:1005C000EA53FE4F808190E008958FEF9FEF0895EA
:1005D0009091C5018091C4012FEF3FEF981748F427
:1005E000E92FF0E0EA53FE4F208130E09F5F9093C7
:1005F000C501C90108958091C4019091C501891B6D
:10060000990B0895CF92DF92EF92FF920F931F9371
:10061000CF93DF937C01CB018A0120910D0222232D
:1006200089F0EB016B01C40ED51ECC15DD0569F018
:100630006991D701ED91FC910190F081E02DC70106
:100640000995F3CF642F0E94B102C801DF91CF91C9
:100650001F910F91FF90EF90DF90CF900895CF936F
:10066000DF931F92CDB7DEB7698320910D0222235D
:10067000F9F020913002203258F021E030E0FC0106
:100680003383228390E080E00F90DF91CF91089533
:1006900080910E02E82FF0E0E15FFD4F9981908399
:1006A0008F5F80930E028093300281E090E0ECCF68
:1006B00061E0CE0101960E94B102F7CF90E080E0A8
:1006C0000895CF93DF93D0E0C0E0009771F0FC0174
:1006D00001900020E9F73197AF01481B590BBC018D
:1006E00081E392E00E94E600EC0142E050E069E321
:1006F00071E081E392E00E94E6008C0F9D1FDF9184
:10070000CF91089590910C029111FCCF282F91E088
:1007100090930C0290930B023FEF30930A021092D9
:100720000902380F309308029093E7019091E70196
:10073000906D9093E7019091E601913019F5109238
:10074000E6019091E7019093BB009091BC0093FD6E
:10075000F8CF95EC9093BC0090910C029130E1F3AE
:1007600090910902981710F420910902A8EEB1E0C7
:10077000E6ECF1E080E0821307C01092C50180939F
:10078000C401089595EEE6CF9D9191938F5FF3CFCD
:100790001F920F920FB60F9211242F933F934F93F6
:1007A0005F936F937F938F939F93AF93BF93EF93D9
:1007B000FF9381E392E00E946401FF91EF91BF916A
:1007C000AF919F918F917F916F915F914F913F91E9
:1007D0002F910F900FBE0F901F9018951F920F92A0
:1007E0000FB60F9211242F938F939F93EF93FF9344
:1007F000E0914102F09142028081E0914702F09144
:10080000480282FD1BC0908180914A028F5F8F73E6
:1008100020914B02821741F0E0914A02F0E0EF5C38
:10082000FD4F958F80934A02FF91EF919F918F9199
:100830002F910F900FBE0F901F9018958081F4CFCD
:100840001F920F920FB60F9211242F933F938F9305
:100850009F93AF93BF938091B8019091B901A091FC
:10086000BA01B091BB013091B70123E0230F2D37BE
:1008700058F50196A11DB11D2093B7018093B801D1
:100880009093B901A093BA01B093BB018091BC01D0
:100890009091BD01A091BE01B091BF010196A11D33
:1008A000B11D8093BC019093BD01A093BE01B09394
:1008B000BF01BF91AF919F918F913F912F910F9069
:1008C0000FBE0F901F90189526E8230F0296A11DCA
:1008D000B11DD2CF1F920F920FB60F9211242F93FA
:1008E0003F934F935F936F937F938F939F93AF93B8
:1008F000BF93EF93FF938091B900887F803609F40E
:100900004AC0F0F5883209F4A7C018F5803109F41F
:100910009BC0B8F4882309F4F9C0883009F494C066
:10092000FF91EF91BF91AF919F918F917F916F91C7
:100930005F914F913F912F910F900FBE0F901F909D
:100940001895883109F488C0803251F780930A02E3
:1009500014C0803409F49DC040F48033B9F3883367
:10096000F9F680930A0285ECB0C0803509F485C0A1
:10097000883509F496C0883499F60E94A702D0CF32
:10098000883909F48CC038F5883729F050F4883656
:1009900011F0803729F683E080930C021092B601A3
:1009A00057C0883809F47BC0803919F0803809F0C5
:1009B000B7CF8091B601803208F071C0E091B601E6
:1009C00081E08E0F8093B6018091BB00F0E0EA5683
:1009D000FE4F80833DC0803B39F0E0F4803A09F45B
:1009E00079C0883A09F09CCF84E080930C02109281
:1009F000950110929401E091C201F091C301099513
:100A00008091940181110FC081E080939401109234
:100A1000740109C0803C09F4A6CF883C09F4A3CF37
:100A2000883B09F07DCFE091950181E08E0F8093A6
:100A30009501F0E0EC58FE4F80818093BB009091CF
:100A400095018091940129C08091E7018093BB00BA
:100A500085EC8093BC0064CF9091090280910802DC
:100A6000981758F5E091090281E08E0F80930902F2
:100A7000F0E0E851FE4F8081E9CFE091090281E08A
:100A80008E0F809309028091BB00F0E0E851FE4F89
:100A9000808390910902809108029817C8F285E836
:100AA000D8CFE091090281E08E0F809309028091F6
:100AB000BB00F0E0E851FE4F808380910B02811172
:100AC0005CCF81E08093E60184EA8093BC001092C1
:100AD0000C0226CF85EC8093BC0010920C02809112
:100AE000B601803230F4E091B601F0E0EA56FE4FF4
:100AF00010826091B60170E0E091C001F091C101F7
:100B000086E991E009951092B6010ACF10920A0287
:100B100034CFE1E3F2E01382128288EE93E0A0E0AA
:100B2000B0E084839583A683B78329E131E03183E4
:100B3000208325EC30E03587248724EC30E03787AC
:100B4000268720EC30E0318B208B21EC30E0338B9A
:100B5000228B22EC30E0358B248B26EC30E0378B77
:100B6000268B118E128E138E148EEEECF2E0138211
:100B7000128284839583A683B7838BE291E091836D
:100B800080830895CF93DF93CDB7DEB7C656D109E2
:100B90000FB6F894DEBF0FBECDBF789484B58260E7
:100BA00084BD84B5816084BD85B5826085BD85B511
:100BB000816085BD80916E00816080936E0010928F
:100BC000810080918100826080938100809181000A
:100BD000816080938100809180008160809380009B
:100BE0008091B10084608093B1008091B0008160F9
:100BF0008093B00080917A00846080937A00809125
:100C00007A00826080937A0080917A00816080937C
:100C10007A0080917A00806880937A001092C100F7
:100C20001092C5011092C40110920E02109230026F
:100C300010920C0281E080930B021092E60161E0B9
:100C400082E10E94F30161E083E10E94F30180915F
:100C5000B9008E7F8093B9008091B9008D7F809319
:100C6000B90088E48093B80085E48093BC0084EEEA
:100C700090E09093C3018093C20185EE90E0909341
:100C8000C1018093C001E0914102F091420282E0F3
:100C90008083E0913D02F0913E021082E0913F029C
:100CA000F09140028FEC808310924902E09145025E
:100CB000F091460286E08083E0914302F091440285
:100CC000808180618083E0914302F09144028081C1
:100CD00088608083E0914302F091440280818068C3
:100CE0008083E0914302F091440280818F7D808374
:100CF000E1EBF0E02491EDE9F0E08491882399F0B4
:100D000090E0880F991FFC01EA57FF4FA591B4911D
:100D1000FC01E458FF4F859194918FB7F894EC91C2
:100D2000E22BEC938FBF0E94640201E000930D025E
:100D300088E680932F0210920E021092300260E03B
:100D40008EEC92E00E942F0381E00E94870081E0F8
:100D500090E00E9482038EEC92E00E94E80287FFFE
:100D60002CC18CE391E00E9461032224239478E655
:100D7000372ECE0101967C011AE0E2E34E2EF0E31D
:100D80005F2EA0E0CA2EA0E0DA2E20920D02309253
:100D90002F0210920E021092300260E08EEC92E070
:100DA0000E942F0381E00E94870087E090E00E946C
:100DB00082038EEC92E00E94E8028F77282F30E0C9
:100DC000A4E035952795AA95E1F7922F990F990FF1
:100DD000022F091B000F080F8EEC92E00E94E80220
:100DE0009C01B4E035952795BA95E1F72F7033272C
:100DF000922F990F990FA22EA91AAA0CA80E8EEC69
:100E000092E00E94E8029C0194E0359527959A951E
:100E1000E1F72F703327922F990F990F822E891A9D
:100E2000880C880E8EEC92E00E94E8028EEC92E034
:100E30000E94E8029C0144E0359527954A95E1F728
:100E40002F703327922F990F990FB22EB91ABB0C1E
:100E5000B80E8EEC92E00E94E8029C0154E03595B9
:100E600027955A95E1F72F703327922F990F990FF5
:100E7000922E991A990C980E8EEC92E00E94E8023C
:100E80009C0164E0359527956A95E1F72F7033272B
:100E9000922F990F990F622E691A660C680E8AEFCD
:100EA000880D61E08C3008F460E08DE00E94F30171
:100EB00044E650E060E071E0C7010E948F08882D91
:100EC000612F0E947D0820E3722E780E40E3490FC7
:100ED0008A2D0E947D0850E3580F905DA6969FAF23
:100EE000A697802F0E947D08805DA7968FAFA79759
:100EF00000E3090F8B2D0E947D0830E3B32EB80E5E
:100F000070E3A72EA90E892D0E947D08E0E39E2E96
:100F1000980EF0E38F2E890E862D0E947D08805D4D
:100F2000905DF701D7010D900020E9F79D012E1982
:100F30003F0922503109BF016E197F0962177307FB
:100F400008F0CAC02081283629F42181283611F4FE
:100F50007082418320812D3641F421812D3629F480
:100F60005083A696BFADA697B1832081233741F465
:100F70002181233729F4A7962FADA79720830183DA
:100F80002081243429F42181243411F4B082A182F7
:100F900020812D3429F421812D3411F49082818215
:100FA0002081293541F42381293509F08EC0408202
:100FB0005182828393833196B5CF87E591E00E9479
:100FC0009A02182F8FE491E00E949A02E82E82E59F
:100FD00091E00E949A02F82E8AE591E00E949A021E
:100FE000D82E8DE591E00E949A02C82E80E691E00D
:100FF0000E949A02B82E00930D0210920E021092D7
:10100000300260E08EEC92E00E942F030AE08B2D0C
:10101000602F0E947D08682F660F680F660F6B0DAA
:101020008EEC92E00E942F038C2D602F0E947D0891
:10103000682F660F680F660F6C0D8EEC92E00E94B1
:101040002F038D2D602F0E947D08682F660F680F7B
:10105000660F6D0D8EEC92E00E942F0360E08EEC27
:1010600092E00E942F038E2D602F0E947D08682F32
:10107000660F680F660F6E0D8EEC92E00E942F03D4
:101080008F2D602F0E947D08682F660F680F660FF6
:101090006F0D8EEC92E00E942F03812F602F0E9433
:1010A0007D08682F660F680F660F610F8EEC92E067
:1010B0000E942F0360E08EEC92E00E942F0381E0FB
:1010C0000E94870083E691E04ECE2181293509F008
:1010D00072CF808391836FCFC7010E9461030E940A
:1010E0006402C114D10409F450CE0E945001882337
:1010F00009F44BCE0E94000048CE991B79E004C051
:10110000991F961708F0961B881F7A95C9F7809546
:101110000895EE0FFF1F0590F491E02D0994FB0157
:10112000DC014150504048F001900D920020C9F779
:1011300001C01D9241505040E0F70895F894FFCF50
:1011400044442E4D4D2E595959592068683A6D6DB9
:101150003A73730000000000008601E6001301D31B
:1011600001440122013601000000002F0302035E4A
:1011700003D802FB02E802D9020D0A0052544320B0
:101180006973204E4F542072756E6E696E6700321F
:10119000332E30342E323032300030362E30302E76
:1011A0003030005254432069732072756E6E696E40
:0411B00067210000B3
:00000001FF
