:100000000C9463000C948B000C948B000C948B006C
:100010000C948B000C948B000C948B000C948B0034
:100020000C948B000C948B000C948B000C948B0024
:100030000C948B000C948B000C948B000C948B0014
:100040000C94B9030C948B000C9487030C946103FB
:100050000C948B000C948B000C948B000C948B00F4
:100060000C948B000C948B000000000024002700EF
:100070002A0000000000250028002B0000000000DE
:1000800023002600290004040404040404040202DA
:100090000202020203030303030301020408102007
:1000A0004080010204081020010204081020000012
:1000B0000008000201000003040700000000000027
:1000C000000003040A0711241FBECFEFD8E0DEBFF3
:1000D000CDBF22E0AEE8B1E001C01D92A63CB20760
:1000E000E1F711E0A0E0B1E0E8E9F2E102C005903B
:1000F0000D92AE38B107D9F710E0C2E6D0E004C0E7
:100100002197FE010E944707C136D107C9F70E9417
:10011000E1040C943F090C94000096E0899FD00103
:100120001124AA5CBD4F90967C936E935F9791E0EB
:1001300091969C939197E091A302F091A4029091E3
:10014000A202992339F0309751F0811108C08091B3
:1001500052020994309719F05C968C91FACF089569
:10016000CF92DF92EF92FF920F931F9396E0899FB9
:10017000F0011124EA5CFD4F11A2278D30A121303E
:10018000310551F178F02230310509F451C02330A6
:10019000310509F452C01F910F91FF90EF90DF904D
:1001A000CF9008956623B9F361E070E00E948D005E
:1001B0002FB7F8948091950190919601A0919701A5
:1001C000B09198012FBF80938E0290938F02A093DD
:1001D0009002B0939102DFCF9FB7F894C090950141
:1001E000D0909601E0909701F09098019FBF009108
:1001F0008E0210918F022091900230919102C01ACC
:10020000D10AE20AF30A0091A0021091A10230E0A3
:1002100020E00C151D052E053F0550F462E070E04E
:100220001F910F91FF90EF90DF90CF900C948D0075
:100230006111B1CF63E070E0F3CF70E060E0F0CF28
:10024000AF92BF92CF92DF92EF92FF920F931F93E4
:10025000CF93DF936C017B018B01040F151FEB0122
:100260005E01AE18BF08C017D10759F06991D601D9
:10027000ED91FC910190F081E02DC6010995892B4B
:1002800079F7C501DF91CF911F910F91FF90EF900A
:10029000DF90CF90BF90AF900895FC01538D448DB7
:1002A000252F30E0842F90E0821B930B541710F021
:1002B000CF96089501970895FC01918D828D98172E
:1002C00061F0A28DAE0FBF2FB11D5D968C91928D06
:1002D0009F5F9F73928F90E008958FEF9FEF089537
:1002E000FC01918D828D981731F0828DE80FF11D00
:1002F000858D90E008958FEF9FEF0895FC01918D1B
:10030000228D892F90E0805C9F4F821B91098F7313
:100310009927089589E991E00E947E0121E0892BC7
:1003200009F420E0822F089580E090E0892B29F0E5
:100330000E948A0181110C9400000895FC01A48D93
:10034000A80FB92FB11DA35ABF4F2C91848D90E0F7
:1003500001968F739927848FA689B7892C93A089DA
:10036000B1898C91837080648C93938D848D981364
:1003700006C00288F389E02D80818F7D80830895F7
:10038000EF92FF920F931F93CF93DF93EC0181E0E5
:10039000888F9B8D8C8D98131AC0E889F98980818C
:1003A00085FF15C09FB7F894EE89FF896083E889BF
:1003B000F98980818370806480839FBF81E090E0B1
:1003C000DF91CF911F910F91FF90EF900895F62E3E
:1003D0000B8D10E00F5F1F4F0F731127E02E8C8DD8
:1003E0008E110CC00FB607FCFACFE889F98980811D
:1003F00085FFF5CFCE010E949E01F1CFEB8DEC0F72
:10040000FD2FF11DE35AFF4FF0829FB7F8940B8F39
:10041000EA89FB8980818062CFCFCF93DF93EC01A3
:10042000888D8823B9F0AA89BB89E889F9898C91DC
:1004300085FD03C0808186FD0DC00FB607FCF7CF98
:100440008C9185FFF2CF808185FFEDCFCE010E9498
:100450009E01E9CFDF91CF910895833081F028F498
:10046000813099F08230A9F008958730A9F0883062
:10047000C9F08430B1F4809180008F7D03C08091F9
:1004800080008F7780938000089584B58F7784BD36
:10049000089584B58F7DFBCF8091B0008F778093D6
:1004A000B00008958091B0008F7DF9CFCF93DF9396
:1004B000282F30E0F901E255FF4F8491F901E6560B
:1004C000FF4FD491F901EA57FF4FC491CC23A1F01B
:1004D00081110E942D02EC2FF0E0EE0FFF1FE45877
:1004E000FF4FA591B491EC91ED2381E090E009F4E8
:1004F00080E0DF91CF91089580E090E0FACF862FE1
:100500000C9456021F93CF93DF93282F30E0F9010C
:10051000E255FF4F8491F901E656FF4FD491F9015E
:10052000EA57FF4FC491CC23A9F0162F81110E94E6
:100530002D02EC2FF0E0EE0FFF1FEE58FF4FA591BC
:10054000B4918FB7F894EC91111108C0D095DE23C7
:10055000DC938FBFDF91CF911F910895DE2BF8CFF1
:10056000862F642F0C948202CF93DF9390E0FC01DE
:10057000E656FF4F24918A579F4FFC0184918823B0
:10058000C9F090E0880F991FFC01E859FF4FA59131
:10059000B491FC01EE58FF4FC591D49161110DC08B
:1005A0009FB7F8948C91209582238C93888128237F
:1005B00028839FBFDF91CF910895623051F49FB798
:1005C000F8943C91822F809583238C93E8812E2B85
:1005D000EFCF8FB7F894EC912E2B2C938FBFEACFEF
:1005E000862F642F0C94B4023FB7F89480918F014A
:1005F00090919001A0919101B091920126B5A89B94
:1006000005C02F3F19F00196A11DB11D3FBFBA2FA4
:10061000A92F982F8827BC01CD01620F711D811D64
:10062000911D42E0660F771F881F991F4A95D1F7E9
:100630000895CF93DF93FC0101900020E9F73197F3
:10064000AF01481B590BBC0189E991E00E942001D0
:10065000EC0142E050E065E371E089E991E00E943D
:1006600020018C0F9D1FDF91CF9108958091A502ED
:100670009091A602FC0131912091A702A8EAB2E074
:100680004496311110C0211115C088E391E00E94F9
:10069000190381E0809394011092BB021092A7028B
:1006A000109293010895321305C031912D91E817EE
:1006B000F90739F78DE391E00E9419031092940134
:1006C000EBCF1F920F920FB60F9211242F933F93EF
:1006D0004F935F936F937F938F939F93AF93BF934A
:1006E000EF93FF9389E991E00E949E01FF91EF91C2
:1006F000BF91AF919F918F917F916F915F914F913A
:100700003F912F910F900FBE0F901F9018951F9241
:100710000F920FB60F9211242F938F939F93EF9305
:10072000FF93E091A901F091AA018081E091AF01CE
:10073000F091B00182FD1BC090818091B2018F5F6A
:100740008F732091B301821741F0E091B201F0E084
:10075000E756FE4F958F8093B201FF91EF919F91E5
:100760008F912F910F900FBE0F901F901895808141
:10077000F4CF1F920F920FB60F9211242F933F9335
:100780008F939F93AF93BF93809195019091960122
:10079000A0919701B091980130918E0123E0230F31
:1007A0002D3758F50196A11DB11D20938E01809320
:1007B000950190939601A0939701B0939801809131
:1007C0008F0190919001A0919101B09192010196B9
:1007D000A11DB11D80938F0190939001A093910171
:1007E000B0939201BF91AF919F918F913F912F91C3
:1007F0000F900FBE0F901F90189526E8230F0296BA
:10080000A11DB11DD2CF10929C0110929B0188EEC8
:1008100093E0A0E0B0E080939D0190939E01A093AF
:100820009F01B093A0018DE191E090939A01809394
:10083000990185EC90E09093A6018093A50184EC4A
:1008400090E09093A8018093A70180EC90E09093B2
:10085000AA018093A90181EC90E09093AC01809370
:10086000AB0182EC90E09093AE018093AD0186ECF9
:1008700090E09093B0018093AF011092B20110927A
:10088000B3011092B4011092B5011092BD02109202
:10089000BC021092BF021092BE021092C1021092CE
:1008A000C00261E070E090E080E00E947208009772
:1008B000E9F09093BD028093BC021092BF021092A7
:1008C000BE022091C0023091C102232B11F4FC0121
:1008D00010821092C1021092C00267E371E0809111
:1008E000BC029091BD020E94380914C08091BC02E4
:1008F0009091BD02009711F00E94E9071092BD028D
:100900001092BC021092C1021092C0021092BF025B
:100910001092BE028EE491E09093A6028093A5020D
:100920001092BB021092A7021092380210923C0261
:1009300010923B0210923D028FE291E090933702B9
:1009400080933602E2E5F2E08EE892E010821482B3
:100950001382158236968E179F07C1F783E091E0C8
:10096000909399028093980280E091E090939B028B
:1009700080939A0284E080939C0283E080939D029E
:1009800087E091E090939702809396028AE090E04E
:1009900090939F0280939E0284EF91E09093A10236
:1009A0008093A0021092A4021092A30210929202CD
:1009B0001092930210929402109295021092A20249
:1009C0000895789484B5826084BD84B5816084BDC7
:1009D00085B5826085BD85B5816085BD80916E00DD
:1009E000816080936E00109281008091810082600E
:1009F000809381008091810081608093810080914B
:100A000080008160809380008091B1008460809339
:100A1000B1008091B00081608093B00080917A0035
:100A2000846080937A0080917A00826080937A005B
:100A300080917A00816080937A0080917A0080684A
:100A400080937A001092C100E091A901F091AA016F
:100A500082E08083E091A501F091A6011082E091EF
:100A6000A701F091A8018FEC80831092B101E09171
:100A7000AD01F091AE0186E08083E091AB01F09191
:100A8000AC01808180618083E091AB01F091AC0189
:100A9000808188608083E091AB01F091AC0180811E
:100AA00080688083E091AB01F091AC0180818F7D03
:100AB000808361E086E00E94B40283E591E00E94B9
:100AC00019038AE691E00E941903812C912C5401AC
:100AD000839440E0642E40E0742E21E02093A20233
:100AE0008FB7F894409195015091960160919701CC
:100AF000709198018FBF8091920290919302A09182
:100B00009402B0919502481B590B6A0B7B0B8091A4
:100B10009E0290919F02B0E0A0E084179507A6077F
:100B2000B70708F022C1C0E080919C02C81760F4AA
:100B3000E0919802F0919902EC0FF11D62E0808142
:100B40000E94B402CF5FF0CF512C80919D025816C5
:100B500008F05FC0052D10E0E0919A02F0919B0231
:100B6000E00FF11F61E080810E94B402E0919A02DF
:100B7000F0919B02E00FF11F60E080810E948202F1
:100B8000D501C401052C04C0880F991FAA1FBB1FE3
:100B90000A94D2F76C017C01E094F094412C80918E
:100BA0009C024816F8F4C42DD0E0E0919802F09130
:100BB0009902EC0FFD1F80810E9456022496CC0FF3
:100BC000DD1FCA5CDD4F892B41F4888199818C2916
:100BD0009D29998388834394E2CF888199818E21CE
:100BE0009F21F7CFE0919A02F0919B02E00FF11F55
:100BF00061E080810E94820280919A0290919B0222
:100C0000080F191F60E0F80180810E94B40253941C
:100C10009CCFC6E3D2E0FE01878D90A1892B31F4F1
:100C2000148E8FEF9FEF968F858F11A2369692E0EC
:100C3000E237F90789F710E080919C02181708F055
:100C400053C000E0E12EF12CEE0CFF1CF701E25C3A
:100C5000FD4F7F0120919D02021708F043C0F7016C
:100C600060817181002E02C0769567950A94E2F743
:100C7000129F90011124200F311DE6E3F2E080E085
:100C8000458D568D2417350709F4C2C08F5F3696FF
:100C90008A30B1F760FF24C0E6E3F2E090E080E044
:100CA000448D411118C0E0919602F0919702E20F35
:100CB000F31F408156E0589FF001599FF00D112419
:100CC000EA5CFD4F448F368F258F10A2178E61E0AE
:100CD0000E94B00005C0019636968A30910501F752
:100CE0000F5FB8CF1F5FA8CF80E099A19111892F26
:100CF000269692E0C237D907C1F79FB7F894409182
:100D000095015091960160919701709198019FBF54
:100D100040939202509393026093940270939502D1
:100D2000882319F1809157028823F9F080915502A8
:100D3000909156020197C9F4C0915202C11118C096
:100D40008091940161E0811101C060E086E00E9421
:100D500082026114710409F4C0CE0E948A018823C2
:100D600009F4BBCE0E940000B8CE1092A202E8CFD8
:100D70000E94F4021B012C018CE3C82ED12CE12C23
:100D8000F12C0E94F4026219730984099509683EE6
:100D9000734081059105A8F3E1E0CE1AD108E1087E
:100DA000F108F8EE2F0EF3E03F1E411C511CC11458
:100DB000D104E104F10429F7C33201F1CA3209F187
:100DC0006C2F89E991E00E94C001909193019F5F8F
:100DD00090939301E091BB02E33169F081E08E0FC3
:100DE0008093BB02F0E0EB55FD4FC283E82FF0E0AB
:100DF000EB55FD4F1282963009F0A2CF0E943603C8
:100E00009FCF1092BB021092A7021092930198CF2D
:100E100061705ECF8091BC029091BD020C94E90795
:100E20002F923F924F925F926F927F928F929F92FA
:100E3000AF92BF92CF92DF92EF92FF920F931F93E8
:100E4000CF93DF93CDB7DEB7CA1BDB0B0FB6F89499
:100E5000DEBF0FBECDBF09942A88398848885F84D9
:100E60006E847D848C849B84AA84B984C884DF804A
:100E7000EE80FD800C811B81AA81B981CE0FD11D2E
:100E80000FB6F894DEBF0FBECDBFED010895EE0F93
:100E9000FF1F0590F491E02D09940F931F93CF93BA
:100EA000DF938230910510F482E090E0E091C4027B
:100EB000F091C50230E020E0B0E0A0E0309799F476
:100EC0002115310509F44AC0281B390B243031059E
:100ED000D8F58A819B816115710589F1FB019383A6
:100EE0008283FE0111C04081518102811381481724
:100EF0005907E0F04817590799F4109761F01296D6
:100F00000C93129713961C933296CF01DF91CF91D9
:100F10001F910F9108950093C4021093C502F4CF5E
:100F20002115310551F04217530738F0A901DB01B3
:100F30009A01BD01DF01F801C1CFEF01F9CF909314
:100F4000C5028093C402CDCFFE01E20FF31F81934F
:100F500091932250310939832883D7CF2091C2023F
:100F60003091C302232B41F42091150130911601D9
:100F70003093C3022093C2022091130130911401D7
:100F80002115310541F42DB73EB74091170150911D
:100F90001801241B350BE091C202F091C302E21745
:100FA000F307A0F42E1B3F0B2817390778F0AC018C
:100FB0004E5F5F4F2417350748F04E0F5F1F509369
:100FC000C3024093C202819391939FCFF0E0E0E08F
:100FD0009CCFCF93DF930097E9F0FC013297138207
:100FE0001282A091C402B091C502ED0130E020E070
:100FF0001097A1F420813181820F931F2091C202AA
:101000003091C3022817390709F061C0F093C30279
:10101000E093C202DF91CF910895EA01CE17DF0776
:10102000E8F54A815B819E0141155105B1F7E9015F
:10103000FB83EA8349915991C40FD51FEC17FD0733
:1010400061F4808191810296840F951FE901998353
:101050008883828193819B838A83F0E0E0E012960B
:101060008D919C9113970097B9F52D913C91119713
:10107000CD010296820F931F2091C2023091C302CC
:101080002817390739F6309751F51092C50210929A
:10109000C402B093C302A093C202BCCFD383C28365
:1010A00040815181840F951FC817D90761F44E5FA5
:1010B0005F4F88819981480F591F518340838A81EE
:1010C0009B81938382832115310509F0B0CFF09382
:1010D000C502E093C4029ECFFD01DC01C0CF1382A4
:1010E0001282D7CFB0E0A0E0E8E7F8E00C94120756
:1010F0008C01009751F4CB010E944D078C01C8016F
:10110000CDB7DEB7E0E10C942E07FC01E60FF71F28
:101110009C0122503109E217F30708F49DC0D90160
:10112000CD91DC911197C617D70798F0C530D1053E
:1011300030F3CE0104978617970708F3C61BD70B29
:101140002297C193D1936D937C93CF010E94E907BD
:10115000D6CF5B01AC1ABD0A4C018C0E9D1EA0912E
:10116000C402B091C502512C412CF12CE12C1097F6
:1011700031F58091C2029091C3028815990509F05A
:101180005CC04616570608F058C080911301909134
:101190001401009741F48DB79EB74091170150910B
:1011A0001801841B950BE817F90708F055C0F09358
:1011B000C302E093C202F90171836083A0CF8D91D5
:1011C0009C91119712966C90129713967C9013979E
:1011D000A815B90559F56C0142E0C40ED11CCA141A
:1011E000DB0420F1AC014A195B09DA01129615976C
:1011F00080F06282738251834083D9016D937C9326
:10120000E114F10471F0D7011396FC93EE93129759
:1012100076CF22968C0F9D1FF90191838083F30175
:10122000EFCFF093C502E093C40269CF4816590688
:1012300008F42C017D01D3019ACFCB010E944D0708
:101240007C01009749F0AE01B8010E942F09C80146
:101250000E94E907870153CF10E000E050CFFB0167
:10126000DC0102C001900D9241505040D8F7089522
:10127000FB01DC0101900D920020E1F7089510E0E0
:10128000C2E6D0E004C0FE010E9447072196C336A3
:08129000D107C9F7F894FFCF64
:101298000B0C0D0708090A31323334353637383923
:1012A8002A30230000C602800000000000C0012090
:1012B800014D010D027E015C01700100000000F08B
:1012C80002B0027F020D0A00204F4B2E00205772F9
:1012D8006F6E672070617373776F726421003132AB
:1012E80033340053696C616B616E206B6574696B94
:1012F8002050494E20416E6461002A203D3E205214
:10130800657365742050617373776F7264206461CC
:0E1318006E2023203D3E205375626D697400E7
:00000001FF
