:100000000C9435000C945D000C945D000C945D0024
:100010000C945D000C945D000C945D000C945D00EC
:100020000C945D000C945D000C945D000C945D00DC
:100030000C945D000C945D000C945D000C945D00CC
:100040000C9490020C945D000C9400030C94DA0262
:100050000C945D000C945D000C945D000C945D00AC
:100060000C945D000C945D00210411241FBECFEFA1
:10007000D8E0DEBFCDBF21E0A2E4B1E001C01D9217
:10008000A83EB207E1F711E0A0E0B1E0E4E7F9E053
:1000900002C005900D92A234B107D9F710E0C5E374
:1000A000D0E004C02197FE010E94B204C433D107FE
:1000B000C9F70E9432030C94B8040C940000AF926C
:1000C000BF92CF92DF92EF92FF920F931F93CF9345
:1000D000DF936C017B018B01040F151FEB015E01A7
:1000E000AE18BF08C017D10759F06991D601ED913C
:1000F000FC910190F081E02DC6010995892B79F7DB
:10010000C501DF91CF911F910F91FF90EF90DF908C
:10011000CF90BF90AF900895FC01538D448D252F53
:1001200030E0842F90E0821B930B541710F0CF9691
:10013000089501970895FC01918D828D981761F0C3
:10014000A28DAE0FBF2FB11D5D968C91928D9F5FDA
:100150009F73928F90E008958FEF9FEF0895FC01B9
:10016000918D828D981731F0828DE80FF11D858D6C
:1001700090E008958FEF9FEF08952FB7F894809146
:10018000470190914801A0914901B0914A012FBFC8
:100190008093530190935401A0935501B09356015D
:1001A0008BE491E00E94AF0097FF26C02FB7F89430
:1001B0008091470190914801A0914901B0914A0175
:1001C0002FBF40915301509154016091550170919E
:1001D0005601841B950BA60BB70B40914F01509114
:1001E0005001609151017091520184179507A60743
:1001F000B707B0F28FEF9FEF0895CF92DF92EF92A3
:10020000FF92CF930E94BD00FC0197FD4EC08D323E
:10021000910521F0C0970A9708F040C0C12CD12C5D
:100220007601C0E0E130F105D1F0ED32F105D9F110
:10023000CF01C0970A9798F4AAE0B0E0A701960111
:100240000E944E046F01FF0FEE08FF08C60ED71E76
:10025000E81EF91E80E3C81AD108E108F1088BE412
:1002600091E00E949B000E94BD00FC01C0970A978C
:10027000C8F2E130F105B1F2CC2341F0F094E09402
:10028000D094C094C11CD11CE11CF11CC701B60163
:10029000CF91FF90EF90DF90CF9008958BE491E0A5
:1002A0000E949B00AFCFC1E0DACFC12CD12C7601E8
:1002B000EDCFFC01918D228D892F90E0805C9F4FC6
:1002C000821B91098F73992708958BE491E00E9416
:1002D000590121E0892B09F420E0822F089580E064
:1002E00090E0892B29F00E94650181110C94000097
:1002F0000895FC01A48DA80FB92FB11DA35ABF4FBB
:100300002C91848D90E001968F739927848FA68914
:10031000B7892C93A089B1898C91837080648C9368
:10032000938D848D981306C00288F389E02D808117
:100330008F7D80830895EF92FF920F931F93CF9349
:10034000DF93EC0181E0888F9B8D8C8D98131AC010
:10035000E889F989808185FF15C09FB7F894EE89F7
:10036000FF896083E889F989808183708064808354
:100370009FBF81E090E0DF91CF911F910F91FF909F
:10038000EF900895F62E0B8D10E00F5F1F4F0F7347
:100390001127E02E8C8D8E110CC00FB607FCFACF02
:1003A000E889F989808185FFF5CFCE010E94790126
:1003B000F1CFEB8DEC0FFD2FF11DE35AFF4FF082D3
:1003C0009FB7F8940B8FEA89FB8980818062CFCF39
:1003D000CF93DF93EC01888D8823B9F0AA89BB897C
:1003E000E889F9898C9185FD03C0808186FD0DC067
:1003F0000FB607FCF7CF8C9185FFF2CF808185FF88
:10040000EDCFCE010E947901E9CFDF91CF91089520
:10041000FC0101900020E9F73197AF01481B590B0F
:10042000BC018BE491E00C945F008F929F92AF929D
:10043000BF92CF92DF92EF92FF920F931F93CF93D1
:10044000DF93CDB7DEB7A1970FB6F894DEBF0FBE2E
:10045000CDBF6B017C01F7FE41C06DE28BE491E002
:100460000E949B018C0122273327A9012C193D09E9
:100470004E095F0919A2CE0181967C019AE0892E6E
:10048000912CA12CB12CCA01B901A50194010E94A3
:100490007C04605DF70162937F0121153105410500
:1004A000510589F790E080E0309719F0CF010E9464
:1004B0000802800F911FA1960FB6F894DEBF0FBE01
:1004C000CDBFDF91CF911F910F91FF90EF90DF9003
:1004D000CF90BF90AF909F908F900895AC019B01FB
:1004E00019A28E010F5D1F4F8AE0C82ED12CE12C7E
:1004F000F12CCA01B901A70196010E947C04605D3C
:10050000F80162938F01211531054105510589F7E5
:1005100090E080E0309779F2CF010E940802CBCFC3
:100520001F920F920FB60F9211242F933F938F9328
:100530009F93AF93BF938091470190914801A09101
:100540004901B0914A013091460123E0230F2D3734
:1005500058F50196A11DB11D2093460180934701D6
:1005600090934801A0934901B0934A0180914201C0
:1005700090914301A0914401B09145010196A11DC4
:10058000B11D8093420190934301A0934401B09325
:100590004501BF91AF919F918F913F912F910F9006
:1005A0000FBE0F901F90189526E8230F0296A11DED
:1005B000B11DD2CF1F920F920FB60F9211242F931D
:1005C0003F934F935F936F937F938F939F93AF93DB
:1005D000BF93EF93FF938BE491E00E947901FF9129
:1005E000EF91BF91AF919F918F917F916F915F91AB
:1005F0004F913F912F910F900FBE0F901F90189524
:100600001F920F920FB60F9211242F938F939F93E7
:10061000EF93FF93E0915B01F0915C018081E091A9
:100620006101F091620182FD1BC0908180916401A3
:100630008F5F8F7320916501821741F0E091640113
:10064000F0E0E55BFE4F958F80936401FF91EF91A1
:100650009F918F912F910F900FBE0F901F90189523
:100660008081F4CF789484B5826084BD84B5816044
:1006700084BD85B5826085BD85B5816085BD80916D
:100680006E00816080936E001092810080918100E5
:1006900082608093810080918100816080938100DD
:1006A000809180008160809380008091B10084609F
:1006B0008093B1008091B00081608093B000809100
:1006C0007A00846080937A0080917A0082608093BF
:1006D0007A0080917A00816080937A0080917A001C
:1006E000806880937A001092C100E0915B01F091E4
:1006F0005C0182E08083E0915701F0915801108203
:10070000E0915901F0915A018FEC808310926301BE
:10071000E0915F01F091600186E08083E0915D01EE
:10072000F0915E01808180618083E0915D01F091B4
:100730005E01808188608083E0915D01F0915E01BF
:10074000808180688083E0915D01F0915E0180810D
:100750008F7D808382E191E00E94080280E391E036
:100760000E94080283E391E00E94080280E391E086
:100770000E94080280E0482E80E0582E8BE491E031
:100780000E945901181619060CF04FC00E94FD0076
:100790006B018BE491E00E949B00382E0E94FD00CB
:1007A0004B01B6010D2C000C880B990B0E94150211
:1007B000632D8BE491E00E949B01B401092C000C95
:1007C000880B990B0E9415028BE2381213C0E401CA
:1007D000CC0DDD1D8DE391E00E940802BE010D2EBF
:1007E000000C880B990B0E94150280E391E00E9497
:1007F0000802C4CF8DE2381204C0E601C819D90935
:10080000E9CF8AE2381208C08C9CE0018D9CD00DA3
:100810009C9CD00D1124DECF8FE23812DBCFC601B5
:10082000B4010E946804EB01D5CF4114510409F4CE
:10083000A5CF0E946501882309F4A0CF0E94000083
:100840009DCFEBE4F1E01382128288EE93E0A0E00A
:10085000B0E084839583A683B78384E091E091839D
:10086000808385EC90E09587848784EC90E097877F
:10087000868780EC90E0918B808B81EC90E0938B6D
:10088000828B82EC90E0958B848B86EC90E0978B4A
:10089000868B118E128E138E148E08950E94590429
:1008A000A59F900DB49F900DA49F800D911D1124C4
:1008B0000895A29FB001B39FC001A39F700D811D39
:1008C0001124911DB29F700D811D1124911D089559
:1008D00097FB072E16F4009407D077FD09D00E94ED
:1008E0009E0407FC05D03EF4909581959F4F089596
:1008F000709561957F4F0895A1E21A2EAA1BBB1B2C
:10090000FD010DC0AA1FBB1FEE1FFF1FA217B307DB
:10091000E407F50720F0A21BB30BE40BF50B661FF1
:10092000771F881F991F1A9469F7609570958095B5
:1009300090959B01AC01BD01CF010895AA1BBB1B83
:1009400051E107C0AA1FBB1FA617B70710F0A61BCF
:10095000B70B881F991F5A95A9F780959095BC01F0
:10096000CD010895EE0FFF1F0590F491E02D09943D
:04097000F894FFCF29
:10097400000000009B015F008C00E80159019B000E
:10098400AF00557365202B2C202D2C202A2C206F92
:1009940072202F206173206F70657261746F720012
:1009A4000D0A0045783A2031202B203200203D20CA
:0209B400000041
:107E0000112484B714BE81FFF0D085E080938100F7
:107E100082E08093C00088E18093C10086E0809377
:107E2000C20080E18093C4008EE0C9D0259A86E02C
:107E300020E33CEF91E0309385002093840096BBD3
:107E4000B09BFECF1D9AA8958150A9F7CC24DD24C4
:107E500088248394B5E0AB2EA1E19A2EF3E0BF2EE7
:107E6000A2D0813461F49FD0082FAFD0023811F036
:107E7000013811F484E001C083E08DD089C08234E0
:107E800011F484E103C0853419F485E0A6D080C0E4
:107E9000853579F488D0E82EFF2485D0082F10E0AE
:107EA000102F00270E291F29000F111F8ED06801E7
:107EB0006FC0863521F484E090D080E0DECF843638
:107EC00009F040C070D06FD0082F6DD080E0C81688
:107ED00080E7D80618F4F601B7BEE895C0E0D1E017
:107EE00062D089930C17E1F7F0E0CF16F0E7DF06D8
:107EF00018F0F601B7BEE89568D007B600FCFDCFD4
:107F0000A601A0E0B1E02C9130E011968C91119780
:107F100090E0982F8827822B932B1296FA010C0160
:107F200087BEE89511244E5F5F4FF1E0A038BF0790
:107F300051F7F601A7BEE89507B600FCFDCF97BE46
:107F4000E89526C08437B1F42ED02DD0F82E2BD052
:107F50003CD0F601EF2C8F010F5F1F4F84911BD097
:107F6000EA94F801C1F70894C11CD11CFA94CF0C13
:107F7000D11C0EC0853739F428D08EE10CD085E9AC
:107F80000AD08FE07ACF813511F488E018D01DD067
:107F900080E101D065CF982F8091C00085FFFCCF94
:107FA0009093C60008958091C00087FFFCCF809118
:107FB000C00084FD01C0A8958091C6000895E0E648
:107FC000F0E098E1908380830895EDDF803219F02E
:107FD00088E0F5DFFFCF84E1DECF1F93182FE3DFCA
:107FE0001150E9F7F2DF1F91089580E0E8DFEE27F6
:047FF000FF270994CA
:027FFE00040479
:0400000300007E007B
:00000001FF
