:100000000C9462000C948A000C948A000C948A0070
:100010000C948A000C948A000C948A000C948A0038
:100020000C948A000C948A000C948A000C94570259
:100030000C948A000C948A000C948A000C948A0018
:100040000C940D020C948A000C948A000C948A0083
:100050000C948A000C948A000C948A000C948A00F8
:100060000C948A000C948A000000000024002700F1
:100070002A0000000000250028002B0000000000DE
:1000800023002600290004040404040404040202DA
:100090000202020203030303030301020408102007
:1000A0004080010204081020010204081020000012
:1000B0000008000201000003040700000000000027
:1000C0000000EE0311241FBECFEFD8E0DEBFCDBF8E
:1000D00011E0A0E0B1E0E0E0F9E002C005900D928F
:1000E000A030B107D9F721E0A0E0B1E001C01D9236
:1000F000A833B207E1F710E0C2E6D0E004C02197D0
:10010000FE010E947804C136D107C9F70E9413038B
:100110000C947E040C9400008F929F92AF92BF9239
:10012000FF920F931F93CF93DF93F09035012BE055
:100130002F1508F44CC02091370108E512E0021B8E
:10014000110927FD1395000F111F000F111F20919A
:100150003601C8E8D0E0C21BD10927FDD395CC0FEA
:10016000DD1FCC0FDD1F4E010D2E000CAA08BB08B1
:100170009801012E000C440B550B281939094A0926
:100180005B09DC010E94330424EB30E040E050E0E6
:100190000E940904820E931EA41EB51E8C169D0695
:1001A0002CF0E801801691060CF4E4012297CC0FA4
:1001B000DD1F2FB7F8948F2D90E0FC01EE0FFF1F8D
:1001C000E80FF91FEF5EFE4FD283C1832FBFDF918F
:1001D000CF911F910F91FF90BF90AF909F908F9004
:1001E0000895833081F028F4813099F08230A9F0AD
:1001F00008958730A9F08830C9F08430B1F4809137
:1002000080008F7D03C0809180008F778093800075
:10021000089584B58F7784BD089584B58F7DFBCF15
:100220008091B0008F778093B00008958091B000E6
:100230008F7DF9CFCF93DF93282F30E0F901E2557E
:10024000FF4F8491F901E656FF4FD491F901EA5727
:10025000FF4FC491CC23A1F081110E94F100EC2F3B
:10026000F0E0EE0FFF1FE458FF4FA591B491EC9121
:10027000ED2381E090E009F480E0DF91CF910895D3
:1002800080E090E0FACF1F93CF93DF93282F30E0E8
:10029000F901E255FF4F8491F901E656FF4FD491E1
:1002A000F901EA57FF4FC491CC23A9F0162F811111
:1002B0000E94F100EC2FF0E0EE0FFF1FEE58FF4F11
:1002C000A591B4918FB7F894EC91111108C0D09515
:1002D000DE23DC938FBFDF91CF911F910895DE2B3A
:1002E000F8CFCF93DF9390E0FC01E656FF4F2491C7
:1002F0008A579F4FFC0184918823D1F090E0880FAA
:10030000991FFC01E859FF4FA591B491FC01EE58EB
:10031000FF4FC591D49161110EC09FB7F8948C9195
:10032000E22FE0958E238C932881E223E8839FBF00
:10033000DF91CF9108958FB7F894EC91E22BEC9375
:100340008FBFF6CF3FB7F8948091070190910801D5
:10035000A0910901B0910A0126B5A89B05C02F3FC5
:1003600019F00196A11DB11D3FBFBA2FA92F982FDB
:100370008827BC01CD01620F711D811D911D42E0D6
:10038000660F771F881F991F4A95D1F708958F929E
:100390009F92AF92BF92CF92DF92EF92FF920E9414
:1003A000A2014B015C0184EFC82EDD24D394E12C23
:1003B000F12C0E94A201681979098A099B09683EFB
:1003C000734081059105A8F321E0C21AD108E10824
:1003D000F10888EE880E83E0981EA11CB11CC114A0
:1003E000D104E104F10429F7FF90EF90DF90CF9062
:1003F000BF90AF909F908F900895CF93DF93EC01C3
:1004000090E080E00E948C000E94C701CE010E9413
:100410008C00DF91CF910C94C7011F920F920FB601
:100420000F9211242F933F938F939F93AF93BF937A
:100430008091030190910401A0910501B091060102
:100440003091020123E0230F2D3758F50196A11DAD
:10045000B11D209302018093030190930401A093A6
:100460000501B09306018091070190910801A091C8
:100470000901B0910A010196A11DB11D80930701E8
:1004800090930801A0930901B0930A01BF91AF9125
:100490009F918F913F912F910F900FBE0F901F90C2
:1004A000189526E8230F0296A11DB11DD2CF1F92E9
:1004B0000F920FB60F9211242F933F934F935F9398
:1004C0006F937F938F939F93AF93BF93CF93DF935C
:1004D000EF93FF9380910101C0910001D0E087FF6D
:1004E00024C01092850010928400809101018F5FDA
:1004F0008093010180910101082E000C990B8C174B
:100500009D0724F4809101018C30C4F18091840016
:1005100090918500049680349C4908F47AC08091BB
:10052000840090918500049676C080910101082E88
:10053000000C990B8C179D07C4F6E09101018E2FDA
:10054000EE0F990BFC01EE0FFF1FE80FF91FEF5E96
:10055000FE4F808186FFC9CFE09101018E2FEE0F03
:10056000990BFC01EE0FFF1FE80FF91FEF5EFE4F26
:10057000808160E08F730E944301B7CF2091840097
:1005800030918500E09101018E2FEE0F990BFC0157
:10059000EE0FFF1FE80FF91FEF5EFE4F8181928182
:1005A000820F931F9093890080938800E09101014E
:1005B0008E2FEE0F990BFC01EE0FFF1FE80FF91FB6
:1005C000EF5EFE4F808186FF11C0E09101018E2F0A
:1005D000EE0F990BFC01EE0FFF1FE80FF91FEF5E06
:1005E000FE4F808161E08F730E944301FF91EF9184
:1005F000DF91CF91BF91AF919F918F917F916F913B
:100600005F914F913F912F910F900FBE0F901F90D0
:10061000189580E49CE990938900809388008FEF7F
:1006200080930101E3CF789484B5826084BD84B562
:10063000816084BD85B5826085BD85B5816085BDDD
:1006400080916E00816080936E0010928100809195
:10065000810082608093810080918100816080931D
:100660008100809180008160809380008091B10042
:1006700084608093B1008091B00081608093B0006D
:1006800080917A00846080937A0080917A00826001
:1006900080937A0080917A00816080937A008091C3
:1006A0007A00806880937A001092C10080913501B1
:1006B0008C3008F051C061E083E00E9471018091AC
:1006C0003501282F30E0F901EE0FFF1FE20FF31F75
:1006D000EF5EFE4F9081907C936090831092360184
:1006E000109237012CE0622F0E946C04829FB001AF
:1006F000112430E020E0AB01420F531FFA01EE0F4E
:10070000FF1FE40FF51FEF5EFE4F908196FD16C0B0
:100710002F5F3F4F2C30310571F781110FC01092C0
:10072000800082E080938100109285001092840006
:10073000B19A80916F00826080936F00E0913501E3
:100740008E2F90E0FC01EE0FFF1FE80FF91FEF5E08
:10075000FE4F80818064808360E08DE00E947101A3
:1007600060E08CE00E94710160E08BE00E9471010A
:1007700080E0C82E80E0D82E8DE00E941A017C0116
:100780009093100180930F018CE00E941A018C015C
:1007900090930E0180930D018BE00E941A01EC01F1
:1007A00090930C0180930B01EA94EF2821F48DE2E1
:1007B00090E00E94FD010130110521F48AE590E0EE
:1007C0000E94FD01219721F484EB90E00E94FD013D
:1007D000C114D10489F20E940000CECF80910001A3
:1007E0008C3098F491E0980F90930001809335013C
:1007F00090E0FC01EE0FFF1FE80FF91FEF5EFE4FC8
:1008000088EB9BE09283818308958FEF809335017D
:100810000895052E97FB1EF400940E94200457FDB6
:1008200007D00E943B0407FC03D04EF40C94200434
:1008300050954095309521953F4F4F4F5F4F08950C
:1008400090958095709561957F4F8F4F9F4F08953C
:100850000E945D04A59F900DB49F900DA49F800DF4
:10086000911D11240895B7FF0C9428040E942804B8
:10087000821B930B0895A1E21A2EAA1BBB1BFD013C
:100880000DC0AA1FBB1FEE1FFF1FA217B307E4076F
:10089000F50720F0A21BB30BE40BF50B661F771FC7
:1008A000881F991F1A9469F76095709580959095A7
:1008B0009B01AC01BD01CF010895A29FB001B39F80
:1008C000C001A39F700D811D1124911DB29F700D59
:1008D000811D1124911D0895991B79E004C0991F71
:1008E000961708F0961B881F7A95C9F7809508958A
:1008F000EE0FFF1F0590F491E02D0994F894FFCFBF
:00000001FF
