:100000000C9458000C9480000C9480000C94800098
:100010000C9480000C9480000C9480000C94800060
:100020000C9480000C9480000C9480000C94800050
:100030000C9480000C9480000C9480000C94800040
:100040000C9409040C9480000C94D7030C94B10315
:100050000C9480000C9480000C9480000C94800020
:100060000C9453040C94800000000000250028002C
:100070002B00040404040404040402020202020229
:10008000030303030303010204081020408001025C
:1000900004081020010204081020000000080002DB
:1000A00001000003040700000000000000007205CA
:1000B00011241FBECFEFD8E0DEBFCDBF11E0A0E01E
:1000C000B1E0E6EBFFE002C005900D92A036B1076B
:1000D000D9F722E0A0E6B1E001C01D92A63CB2072C
:1000E000E1F710E0C8E5D0E004C02197FE010E94CE
:1000F000C407C735D107C9F70E94AB050C94D907CF
:100100000C940000982F20911C0281E0213208F00D
:1001100043C08091F8018111FCCF80911B0232E035
:100120003093F8019093F7019FEF9093F6011092AE
:10013000F5012093F401ABEFB1E0E4EDF1E090E0E4
:10014000291331C01092D3019091D301880F892BCC
:100150008093D3018091D201813049F51092D20170
:100160008091D3018093BB008091BC0083FDF8CFC8
:1001700085EC8093BC008091F8018230E1F380919E
:10018000F6018F3FB1F08091F6018032A1F08091AD
:10019000F601803391F084E01092FA0110921C0273
:1001A0001092F90108953D9131939F5FC9CF85EE7B
:1001B000E0CF80E0F1CF82E0EFCF83E0EDCF90E0C1
:1001C000FC01E656FF4F2491FC01EA57FF4F3491A2
:1001D000FC01EE58FF4FE491EE23B1F0222339F0F9
:1001E0002330E9F090F4213001F1223011F1F0E0F8
:1001F000EE0FFF1FE859FF4FA591B4918FB7F89408
:10020000EC913E2B3C938FBF08952730A9F0283006
:10021000C9F0243061F7809180008F7D03C0809108
:1002200080008F7780938000E2CF84B58F7784BD84
:10023000DECF84B58F7DFBCF8091B0008F77809328
:10024000B000D5CF8091B0008F7DF9CF089508958B
:10025000AF92BF92CF92DF92EF92FF920F931F93D4
:10026000CF93DF936C017B018B01040F151FEB0112
:100270005E01AE18BF08C017D10759F06991D601C9
:10028000ED91FC910190F081E02DC6010995892B3B
:1002900079F7C501DF91CF911F910F91FF90EF90FA
:1002A000DF90CF90BF90AF900895FC01538D448DA7
:1002B000252F30E0842F90E0821B930B541710F011
:1002C000CF96089501970895FC01918D828D98171E
:1002D00061F0A28DAE0FBF2FB11D5D968C91928DF6
:1002E0009F5F9F73928F90E008958FEF9FEF089527
:1002F000FC01918D828D981731F0828DE80FF11DF0
:10030000858D90E008958FEF9FEF0895FC01918D0A
:10031000228D892F90E0805C9F4F821B91098F7303
:10032000992708958DE192E00E94860121E0892BB2
:1003300009F420E0822F089580E090E0892B29F0D5
:100340000E94920181110C9400000895FC01A48D7B
:10035000A80FB92FB11DA35ABF4F2C91848D90E0E7
:1003600001968F739927848FA689B7892C93A089CA
:10037000B1898C91837080648C93938D848D981354
:1003800006C00288F389E02D80818F7D80830895E7
:10039000EF92FF920F931F93CF93DF93EC0181E0D5
:1003A000888F9B8D8C8D98131AC0E889F98980817C
:1003B00085FF15C09FB7F894EE89FF896083E889AF
:1003C000F98980818370806480839FBF81E090E0A1
:1003D000DF91CF911F910F91FF90EF900895F62E2E
:1003E0000B8D10E00F5F1F4F0F731127E02E8C8DC8
:1003F0008E110CC00FB607FCFACFE889F98980810D
:1004000085FFF5CFCE010E94A601F1CFEB8DEC0F59
:10041000FD2FF11DE35AFF4FF0829FB7F8940B8F29
:10042000EA89FB8980818062CFCFCF93DF93EC0193
:10043000888D8823B9F0AA89BB89E889F9898C91CC
:1004400085FD03C0808186FD0DC00FB607FCF7CF88
:100450008C9185FFF2CF808185FFEDCFCE010E9488
:10046000A601E9CFDF91CF9108953FB7F89480912D
:10047000A8019091A901A091AA01B091AB0126B564
:10048000A89B05C02F3F19F00196A11DB11D3FBFCC
:10049000BA2FA92F982F8827BC01CD01620F711D9B
:1004A000811D911D42E0660F771F881F991F4A9595
:1004B000D1F708958F929F92AF92BF92CF92DF9221
:1004C000EF92FF920E9435024B015C0188EEC82E2C
:1004D00083E0D82EE12CF12C0E94350268197909AD
:1004E0008A099B09683E734081059105A8F321E0C4
:1004F000C21AD108E108F10888EE880E83E0981E40
:10050000A11CB11CC114D104E104F10429F7FF902E
:10051000EF90DF90CF90BF90AF909F908F90089515
:1005200085ED8093BC008091BC0084FDFCCF1092CF
:10053000F801089520918001260F3327331F2132BF
:100540003105ECF42091F801FC0190E080E02430CA
:1005500069F082E00895A09180012191AC01405A98
:100560005E4FA40FB52FB11D2C930196861798F3FB
:1005700080918001680F6093800180E0089581E0A0
:1005800008950895E091B1018091B001E81730F429
:10059000F0E0EE54FE4F808190E008958FEF9FEFE2
:1005A00008959091B1018091B0012FEF3FEF98171E
:1005B00048F4E92FF0E0EE54FE4F208130E09F5FD9
:1005C0009093B101C90108958091B0019091B1015A
:1005D000891B990B0895CF92DF92EF92FF920F93B0
:1005E0001F93CF93DF937C01CB018A012091F90106
:1005F000222389F0EB016B01C40ED51ECC15DD055D
:1006000069F06991D701ED91FC910190F081E02DA5
:10061000C7010995F3CF642F0E949A02C801DF91A8
:10062000CF911F910F91FF90EF90DF90CF900895A1
:10063000CF93DF931F92CDB7DEB769832091F90185
:100640002223F9F020911C02203258F021E030E002
:10065000FC013383228390E080E00F90DF91CF9103
:1006600008958091FA01E82FF0E0E550FE4F99815E
:1006700090838F5F8093FA0180931C0281E090E069
:10068000ECCF61E0CE0101960E949A02F7CF90E094
:1006900080E00895CF93DF93D0E0C0E0009771F041
:1006A000FC0101900020E9F73197AF01481B590B7D
:1006B000BC018DE192E00E942801EC0142E050E093
:1006C00069E371E08DE192E00E9428018C0F9D1F8B
:1006D000DF91CF9108959091F8019111FCCF282FCF
:1006E00091E09093F8019093F7013FEF3093F6017A
:1006F0001092F501380F3093F4019093D30190914B
:10070000D301906D9093D3019091D201913019F55E
:100710001092D2019091D3019093BB009091BC00B4
:1007200093FDF8CF95EC9093BC009091F801913037
:10073000E1F39091F501981710F42091F501A4EDE3
:10074000B1E0E2EBF1E080E0821307C01092B1016A
:100750008093B001089595EEE6CF9D9191938F5FC0
:10076000F3CF1F920F920FB60F9211242F933F9346
:100770004F935F936F937F938F939F93AF93BF93A9
:10078000EF93FF938DE192E00E94A601FF91EF911C
:10079000BF91AF919F918F917F916F915F914F9199
:1007A0003F912F910F900FBE0F901F9018951F92A1
:1007B0000F920FB60F9211242F938F939F93EF9365
:1007C000FF93E0912D02F0912E028081E09133029F
:1007D000F091340282FD1BC09081809136028F5FC0
:1007E0008F7320913702821741F0E0913602F0E0DA
:1007F000E35EFD4F958F80933602FF91EF919F91BD
:100800008F912F910F900FBE0F901F9018958081A0
:10081000F4CF1F920F920FB60F9211242F933F9394
:100820008F939F93AF93BF938091A4019091A50163
:10083000A091A601B091A7013091A30123E0230F5D
:100840002D3758F50196A11DB11D2093A30180936A
:10085000A4019093A501A093A601B093A701809154
:10086000A8019091A901A091AA01B091AB010196B4
:10087000A11DB11D8093A8019093A901A093AA0185
:10088000B093AB01BF91AF919F918F913F912F9109
:100890000F900FBE0F901F90189526E8230F029619
:1008A000A11DB11DD2CF1F920F920FB60F9211242E
:1008B0002F933F934F935F936F937F938F939F9368
:1008C000AF93BF93EF93FF938091B900887F8036F9
:1008D00009F44AC0F0F5883209F4A7C018F5803150
:1008E00009F49BC0B8F4882309F4F9C0883009F4EE
:1008F00094C0FF91EF91BF91AF919F918F917F91A4
:100900006F915F914F913F912F910F900FBE0F907C
:100910001F901895883109F488C0803251F7809370
:10092000F60114C0803409F49DC040F48033B9F35B
:100930008833F9F68093F60185ECB0C0803509F470
:1009400085C0883509F496C0883499F60E949002D3
:10095000D0CF883909F48CC038F5883729F050F4A5
:10096000883611F0803729F683E08093F8011092E1
:10097000A20157C0883809F47BC0803919F080384B
:1009800009F0B7CF8091A201803208F071C0E091E8
:10099000A20181E08E0F8093A2018091BB00F0E064
:1009A000EE57FE4F80833DC0803B39F0E0F4803A43
:1009B00009F479C0883A09F09CCF84E08093F8016B
:1009C0001092810110928001E091AE01F091AF018F
:1009D00009958091800181110FC081E08093800191
:1009E0001092600109C0803C09F4A6CF883C09F44C
:1009F000A3CF883B09F07DCFE091810181E08E0F8C
:100A000080938101F0E0E05AFE4F80818093BB002B
:100A1000909181018091800129C08091D3018093C0
:100A2000BB0085EC8093BC0064CF9091F501809170
:100A3000F401981758F5E091F50181E08E0F80934D
:100A4000F501F0E0EC52FE4F8081E9CFE091F50135
:100A500081E08E0F8093F5018091BB00F0E0EC52B5
:100A6000FE4F80839091F5018091F4019817C8F2B0
:100A700085E8D8CFE091F50181E08E0F8093F501F4
:100A80008091BB00F0E0EC52FE4F80838091F70133
:100A900081115CCF81E08093D20184EA8093BC0015
:100AA0001092F80126CF85EC8093BC001092F801DB
:100AB0008091A201803230F4E091A201F0E0EE5783
:100AC000FE4F10826091A20170E0E091AC01F091C4
:100AD000AD0182E891E009951092A2010ACF10922F
:100AE000F60134CFEDE1F2E01382128288EE93E05A
:100AF000A0E0B0E084839583A683B78329E131E049
:100B00003183208325EC30E03587248724EC30E0E6
:100B10003787268720EC30E0318B208B21EC30E0CA
:100B2000338B228B22EC30E0358B248B26EC30E0AB
:100B3000378B268B118E128E138E148EEAEBF2E019
:100B40001382128284839583A683B7838BE291E01C
:100B5000918380830895CF93DF93CDB7DEB7C656D8
:100B6000D1090FB6F894DEBF0FBECDBF789484B51F
:100B7000826084BD84B5816084BD85B5826085BD99
:100B800085B5816085BD80916E00816080936E0027
:100B90001092810080918100826080938100809119
:100BA00081008160809381008091800081608093CA
:100BB00080008091B10084608093B1008091B0008A
:100BC00081608093B00080917A00846080937A0085
:100BD00080917A00826080937A0080917A008160AF
:100BE00080937A0080917A00806880937A001092D6
:100BF000C1001092B1011092B0011092FA0110924E
:100C00001C021092F80111E01093F7011092D2012A
:100C100082E10E94DF0083E10E94DF008091B90041
:100C20008E7F8093B9008091B9008D7F8093B90049
:100C300088E48093B80085E48093BC0086E291E06C
:100C40009093AF018093AE0187E291E09093AD0164
:100C50008093AC01E0912D02F0912E0282E080831E
:100C6000E0912902F0912A021082E0912B02F0918A
:100C70002C028FEC808310923502E0913102F091CA
:100C8000320286E08083E0912F02F0913002808171
:100C900080618083E0912F02F09130028081886032
:100CA0008083E0912F02F091300280818068808300
:100CB000E0912F02F091300280818F7D80830E942D
:100CC0005A021093F90188E680931B021092FA01F0
:100CD00010921C0260E08AEB92E00E94180381E00F
:100CE0000E94820081E090E00E946B038AEB92E018
:100CF0000E94D10287FF22C18CE391E00E944A0347
:100D00002224239448E6342ECE0101967C011AE079
:100D100052E3452E60E3562E70E0C72E70E0D72ECA
:100D20002092F90130921B021092FA0110921C02DB
:100D300060E08AEB92E00E94180381E00E9482004A
:100D400087E090E00E946B038AEB92E00E94D10260
:100D50008F77282F30E094E0359527959A95E1F725
:100D6000922F990F990F022F091B000F080F8AEB82
:100D700092E00E94D1029C0144E0359527954A9566
:100D8000E1F72F703327922F990F990FA22EA91AEE
:100D9000AA0CA80E8AEB92E00E94D1029C0154E0BA
:100DA000359527955A95E1F72F703327922F990F94
:100DB000990F822E891A880C880E8AEB92E00E9485
:100DC000D1028AEB92E00E94D1029C0164E0359549
:100DD00027956A95E1F72F703327922F990F990F76
:100DE000B22EB91ABB0CB80E8AEB92E00E94D10267
:100DF0009C0174E0359527957A95E1F72F7033279C
:100E0000922F990F990F922E991A990C980E8AEB9E
:100E100092E00E94D1029C01E4E035952795EA9585
:100E2000E1F72F703327922F990F990F622E691ACD
:100E3000660C680E44E650E060E071E0C7010E9475
:100E4000CA07882D612F0E94B807F0E37F2E780E25
:100E500040E3490F8A2D0E94B80750E3580F905D78
:100E6000A6969FAFA697802F0E94B807805DA79691
:100E70008FAFA79700E3090F8B2D0E94B807A0E35F
:100E8000BA2EB80EB0E3AB2EA90E892D0E94B8077A
:100E900020E3922E980E30E3832E890E862D0E9439
:100EA000B807805D905DF701D7010D900020E9F74C
:100EB0009D012E193F0922503109BF016E197F098A
:100EC0006217730708F043C02081283629F4218176
:100ED000283611F47082418320812D3641F421811E
:100EE0002D3629F45083A696BFADA697B1832081F5
:100EF000233741F42181233729F4A7962FADA797F3
:100F0000208301832081243429F42181243411F4A5
:100F1000B082A18220812D3429F421812D3411F455
:100F2000908281822081293539F42381293549F441
:100F300040825182828393833196B6CF8FE491E0D1
:100F4000DDCE21812935C1F780839183F5CFC7019B
:100F50000E944A030E945A02C114D10409F4E0CE4F
:100F60000E949201882309F4DBCE0E940000D8CEB3
:100F7000991B79E004C0991F961708F0961B881FEB
:100F80007A95C9F780950895EE0FFF1F0590F491AB
:100F9000E02D0994FB01DC014150504048F00190E4
:100FA0000D920020C9F701C01D9241505040E0F75A
:060FB0000895F894FFCF44
:100FB60044442E4D4D2E595959592068683A6D6D45
:100FC6003A7373000000000000C80128015501159E
:100FD60002860164017801000000001803EB024755
:100FE60003C102E402D102C2020D0A005254432098
:100FF6006973204E4F542072756E6E696E6700528B
:1010060054432069732072756E6E696E6721000005
:107E0000112484B714BE81FFF0D085E080938100F7
:107E100082E08093C00088E18093C10086E0809377
:107E2000C20080E18093C4008EE0C9D0259A86E02C
:107E300020E33CEF91E0309385002093840096BBD3
:107E4000B09BFECF1D9AA8958150A9F7CC24DD24C4
:107E500088248394B5E0AB2EA1E19A2EF3E0BF2EE7
:107E6000A2D0813461F49FD0082FAFD0023811F036
:107E7000013811F484E001C083E08DD089C08234E0
:107E800011F484E103C0853419F485E0A6D080C0E4
:107E9000853579F488D0E82EFF2485D0082F10E0AE
:107EA000102F00270E291F29000F111F8ED06801E7
:107EB0006FC0863521F484E090D080E0DECF843638
:107EC00009F040C070D06FD0082F6DD080E0C81688
:107ED00080E7D80618F4F601B7BEE895C0E0D1E017
:107EE00062D089930C17E1F7F0E0CF16F0E7DF06D8
:107EF00018F0F601B7BEE89568D007B600FCFDCFD4
:107F0000A601A0E0B1E02C9130E011968C91119780
:107F100090E0982F8827822B932B1296FA010C0160
:107F200087BEE89511244E5F5F4FF1E0A038BF0790
:107F300051F7F601A7BEE89507B600FCFDCF97BE46
:107F4000E89526C08437B1F42ED02DD0F82E2BD052
:107F50003CD0F601EF2C8F010F5F1F4F84911BD097
:107F6000EA94F801C1F70894C11CD11CFA94CF0C13
:107F7000D11C0EC0853739F428D08EE10CD085E9AC
:107F80000AD08FE07ACF813511F488E018D01DD067
:107F900080E101D065CF982F8091C00085FFFCCF94
:107FA0009093C60008958091C00087FFFCCF809118
:107FB000C00084FD01C0A8958091C6000895E0E648
:107FC000F0E098E1908380830895EDDF803219F02E
:107FD00088E0F5DFFFCF84E1DECF1F93182FE3DFCA
:107FE0001150E9F7F2DF1F91089580E0E8DFEE27F6
:047FF000FF270994CA
:027FFE00040479
:0400000300007E007B
:00000001FF
