:100000000C945D000C9485000C9485000C94850084
:100010000C9485000C9485000C9485000C9485004C
:100020000C9485000C9485000C9485000C9485003C
:100030000C9485000C9485000C9485000C9485002C
:100040000C9419030C9485000C94E7020C94C102E3
:100050000C9485000C9485000C9485000C9485000C
:100060000C9485000C94850000000008000201003B
:100070000003040700000000000000000000000072
:10008000250028002B0000000000240027002A0083
:10009000040404040404040402020202020203032E
:1000A0000303030301020408102040800102040836
:1000B0001020010204081020030511241FBECFEFF9
:1000C000D8E0DEBFCDBF22E0A8E6B1E001C01D92BE
:1000D000A231B207E1F711E0A0E0B1E0E4EDFEE00B
:1000E00002C005900D92A836B107D9F710E0CDE512
:1000F000D0E004C02197FE010E946705CC35D107EE
:10010000C9F70E9463030C9468070C9400000895DB
:10011000AF92BF92CF92DF92EF92FF920F931F9315
:10012000CF93DF936C017B018B01040F151FEB0153
:100130005E01AE18BF08C017D10759F06991D6010A
:10014000ED91FC910190F081E02DC6010995892B7C
:1001500079F7C501DF91CF911F910F91FF90EF903B
:10016000DF90CF90BF90AF900895FC01538D448DE8
:10017000252F30E0842F90E0821B930B541710F052
:10018000CF96089501970895FC01918D828D98175F
:1001900061F0A28DAE0FBF2FB11D5D968C91928D37
:1001A0009F5F9F73928F90E008958FEF9FEF089568
:1001B0002FB7F89480916D0190916E01A0916F011D
:1001C000B09170012FBF8093790190937A01A09331
:1001D0007B01B0937C0181E791E00E94C40097FF0E
:1001E00026C02FB7F89480916D0190916E01A09177
:1001F0006F01B09170012FBF4091790150917A0148
:1002000060917B0170917C01841B950BA60BB70B51
:10021000409175015091760160917701709178015C
:1002200084179507A607B707B0F28FEF9FEF0895E1
:10023000FC01918D828D981731F0828DE80FF11DB0
:10024000858D90E008958FEF9FEF0895FC01918DCB
:10025000228D892F90E0805C9F4F821B91098F73C4
:100260009927089581E791E00E94260121E0892BDA
:1002700009F420E0822F089580E090E0892B29F096
:100280000E94320181110C9400000895FC01A48D9C
:10029000A80FB92FB11DA35ABF4F2C91848D90E0A8
:1002A00001968F739927848FA689B7892C93A0898B
:1002B000B1898C91837080648C93938D848D981315
:1002C00006C00288F389E02D80818F7D80830895A8
:1002D000EF92FF920F931F93CF93DF93EC0181E096
:1002E000888F9B8D8C8D98131AC0E889F98980813D
:1002F00085FF15C09FB7F894EE89FF896083E88970
:10030000F98980818370806480839FBF81E090E061
:10031000DF91CF911F910F91FF90EF900895F62EEE
:100320000B8D10E00F5F1F4F0F731127E02E8C8D88
:100330008E110CC00FB607FCFACFE889F9898081CD
:1003400085FFF5CFCE010E944601F1CFEB8DEC0F7A
:10035000FD2FF11DE35AFF4FF0829FB7F8940B8FEA
:10036000EA89FB8980818062CFCFCF93DF93EC0154
:10037000888D8823B9F0AA89BB89E889F9898C918D
:1003800085FD03C0808186FD0DC00FB607FCF7CF49
:100390008C9185FFF2CF808185FFEDCFCE010E9449
:1003A0004601E9CFDF91CF91089590E0FC01E85933
:1003B000FF4F2491FC01EC55FF4F3491FC01E057B5
:1003C000FF4FE491EE23C9F0222339F0233001F1ED
:1003D000A8F4213019F1223029F1F0E0EE0FFF1FCF
:1003E000E458FF4FA591B4918FB7F894EC91611147
:1003F00026C030953E233C938FBF08952730A9F047
:100400002830C9F0243049F7809180008F7D03C0E7
:10041000809180008F7780938000DFCF84B58F77C5
:1004200084BDDBCF84B58F7DFBCF8091B0008F770B
:100430008093B000D2CF8091B0008F7DF9CF3E2B5A
:10044000DACF3FB7F8948091690190916A01A09149
:100450006B01B0916C0126B5A89B05C02F3F19F028
:100460000196A11DB11D3FBFBA2FA92F982F882734
:10047000BC01CD01620F711D811D911D42E0660F0F
:10048000771F881F991F4A95D1F708958F929F92E1
:10049000AF92BF92CF92DF92EF92FF920E94210221
:1004A0004B015C0188EEC82E83E0D82EE12CF12CA4
:1004B0000E942102681979098A099B09683E7340E4
:1004C00081059105A8F321E0C21AD108E108F108DD
:1004D00088EE880E83E0981EA11CB11CC114D104C3
:1004E000E104F10429F7FF90EF90DF90CF90BF90E7
:1004F000AF909F908F900895CF93DF93FC01019070
:100500000020E9F73197AF01481B590BBC0181E787
:1005100091E00E948800EC0142E050E068E171E067
:1005200081E791E00E9488008C0F9D1FDF91CF91A1
:1005300008950F931F93CF93DF93EC0188819981E6
:10054000009759F02A813B812617370730F081E068
:10055000DF91CF911F910F9108958B016F5F7F4FB6
:100560000E949206009759F0998388831B830A831F
:100570002C813D81232B59F7FC011082E8CF80E0CC
:10058000E7CF1F920F920FB60F9211242F933F9334
:100590004F935F936F937F938F939F93AF93BF938B
:1005A000EF93FF9381E791E00E944601FF91EF9165
:1005B000BF91AF919F918F917F916F915F914F917B
:1005C0003F912F910F900FBE0F901F9018951F9283
:1005D0000F920FB60F9211242F938F939F93EF9347
:1005E000FF93E0918101F09182018081E091870188
:1005F000F091880182FD1BC0908180918A018F5FFC
:100600008F7320918B01821741F0E0918A01F0E015
:10061000EF58FE4F958F80938A01FF91EF919F9144
:100620008F912F910F900FBE0F901F901895808182
:10063000F4CF1F920F920FB60F9211242F933F9376
:100640008F939F93AF93BF9380916D0190916E01B3
:10065000A0916F01B09170013091680123E0230FE8
:100660002D3758F50196A11DB11D20936801809387
:100670006D0190936E01A0936F01B0937001809112
:10068000690190916A01A0916B01B0916C01019692
:10069000A11DB11D8093690190936A01A0936B0124
:1006A000B0936C01BF91AF919F918F913F912F912A
:1006B0000F900FBE0F901F90189526E8230F0296FB
:1006C000A11DB11DD2CFCF93DF93CDB7DEB72E974B
:1006D0000FB6F894DEBF0FBECDBF789484B58260AC
:1006E00084BD84B5816084BD85B5826085BD85B5D6
:1006F000816085BD80916E00816080936E00109254
:1007000081008091810082608093810080918100CE
:10071000816080938100809180008160809380005F
:100720008091B10084608093B1008091B0008160BD
:100730008093B00080917A00846080937A008091E9
:100740007A00826080937A0080917A008160809341
:100750007A0080917A00806880937A001092C100BC
:10076000E0918101F091820182E08083E0917D013E
:10077000F0917E011082E0917F01F09180018FEC79
:10078000808310928901E0918501F091860186E0D5
:100790008083E0918301F091840180818061808376
:1007A000E0918301F0918401808188608083E091F1
:1007B0008301F0918401808180688083E0918301CE
:1007C000F091840180818F7D80832DE030E0F901FC
:1007D000EC55FF4F4491F901E057FF4F8491882376
:1007E00099F090E0880F991FFC01EA57FF4FA591FF
:1007F000B491FC01E458FF4F859194918FB7F89420
:10080000EC91E42BEC938FBF215031092530310559
:10081000F1F68BE191E00E947C0280E0E82E80E01E
:10082000F82E18861F821A8619861C861B8670E091
:1008300060E0CE0107960E9499022F8138858111D0
:1008400052C02115310519F0C9010E940906188608
:100850001F821C861B861A86198681E791E00E94FA
:100860002601181619060CF07AC01A8219821C8209
:100870001B821E821D8270E060E0CE0101960E9404
:10088000990229813A81811136C02115310519F06B
:10089000C9010E9409061A8219821E821D821C82C9
:1008A0001B820E94D80097FD2EC08A30910559F115
:1008B0008D871E860D811E810F5F1F4FB801CE01EF
:1008C00001960E949902882361F329813A818D81E2
:1008D0009E81BE01635F7F4F820F931F0E9461075D
:1008E0001E830D83DECF1C861B866AE171E0C90181
:1008F0000E946107B2CF1E821D826AE171E0C901C8
:100900000E946107CECF8F8198850097C9F06981D9
:100910007A816115710591F049855A852D813E8155
:100920004217530758F00E9461078D819E819C8772
:100930008B8789819A810E9409068FCF0E940906C0
:1009400089819A8198878F838B819C819A878987F7
:100950008D819E819C878B871A821982EACF8B8535
:100960009C85892BF1F064E371E08F8198850E946A
:100970005807892BB1F487E391E00E947C021DE0C7
:1009800061E0812F0E94D5010E944602115015306E
:10099000B9F71DE060E0812F0E94D501115015309C
:1009A000C9F78B859C85892BF1F06DE471E08F810F
:1009B00098850E945807892BB1F482E591E00E9446
:1009C0007C0216E061E0812F0E94D5010E94460260
:1009D0001F5F1E30B9F71DE060E0812F0E94D50136
:1009E00011501530C9F78F8198850E940906E114CE
:1009F000F10409F416CF0E943201882309F411CFC3
:100A00000E9400000ECFE1E7F1E01382128288EE2F
:100A100093E0A0E0B0E084839583A683B7838AE067
:100A200091E09183808385EC90E09587848784ECC6
:100A300090E09787868780EC90E0918B808B81ECAB
:100A400090E0938B828B82EC90E0958B848B86EC8C
:100A500090E0978B868B118E128E138E148E0895D4
:100A60002F923F924F925F926F927F928F929F92BE
:100A7000AF92BF92CF92DF92EF92FF920F931F93AC
:100A8000CF93DF93CDB7DEB7CA1BDB0B0FB6F8945D
:100A9000DEBF0FBECDBF09942A88398848885F849D
:100AA0006E847D848C849B84AA84B984C884DF800E
:100AB000EE80FD800C811B81AA81B981CE0FD11DF2
:100AC0000FB6F894DEBF0FBECDBFED010895EE0F57
:100AD000FF1F0590F491E02D09940F931F93CF937E
:100AE000DF938230910510F482E090E0E0911002F3
:100AF000F091110230E020E0B0E0A0E0309799F4EE
:100B00002115310509F44AC0281B390B2430310561
:100B1000D8F58A819B816115710589F1FB01938369
:100B20008283FE0111C040815181028113814817E7
:100B30005907E0F04817590799F4109761F0129699
:100B40000C93129713961C933296CF01DF91CF919D
:100B50001F910F9108950093100210931102F4CF8A
:100B60002115310551F04217530738F0A901DB0177
:100B70009A01BD01DF01F801C1CFEF01F9CF9093D8
:100B8000110280931002CDCFFE01E20FF31F81937B
:100B900091932250310939832883D7CF20910E02B7
:100BA00030910F02232B41F4209102013091030177
:100BB00030930F0220930E02209100013091010129
:100BC0002115310541F42DB73EB7409104015091F4
:100BD0000501241B350BE0910E02F0910F02E21784
:100BE000F307A0F42E1B3F0B2817390778F0AC0150
:100BF0004E5F5F4F2417350748F04E0F5F1F50932D
:100C00000F0240930E02819391939FCFF0E0E0E0BA
:100C10009CCFCF93DF930097E9F0FC0132971382CA
:100C20001282A0911002B0911102ED0130E020E09B
:100C30001097A1F420813181820F931F20910E0221
:100C400030910F022817390709F061C0F0930F02A5
:100C5000E0930E02DF91CF910895EA01CE17DF07EE
:100C6000E8F54A815B819E0141155105B1F7E90123
:100C7000FB83EA8349915991C40FD51FEC17FD07F7
:100C800061F4808191810296840F951FE901998317
:100C90008883828193819B838A83F0E0E0E01296CF
:100CA0008D919C9113970097B9F52D913C911197D7
:100CB000CD010296820F931F20910E0230910F02F8
:100CC0002817390739F6309751F510921102109212
:100CD0001002B0930F02A0930E02BCCFD383C28345
:100CE00040815181840F951FC817D90761F44E5F69
:100CF0005F4F88819981480F591F518340838A81B2
:100D00009B81938382832115310509F0B0CFF09345
:100D10001102E09310029ECFFD01DC01C0CF1382CF
:100D20001282D7CFB0E0A0E0E8E9F6E00C943205FB
:100D30008C01009751F4CB010E946D058C01C80114
:100D4000CDB7DEB7E0E10C944E05FC01E60FF71FCE
:100D50009C0122503109E217F30708F49DC0D90124
:100D6000CD91DC911197C617D70798F0C530D10502
:100D700030F3CE0104978617970708F3C61BD70BED
:100D80002297C193D1936D937C93CF010E94090662
:100D9000D6CF5B01AC1ABD0A4C018C0E9D1EA091F2
:100DA0001002B0911102512C412CF12CE12C109722
:100DB00031F580910E0290910F028815990509F086
:100DC0005CC04616570608F058C08091000190910B
:100DD0000101009741F48DB79EB7409104015091F5
:100DE0000501841B950BE817F90708F055C0F0932F
:100DF0000F02E0930E02F90171836083A0CF8D9101
:100E00009C91119712966C90129713967C90139761
:100E1000A815B90559F56C0142E0C40ED11CCA14DD
:100E2000DB0420F1AC014A195B09DA01129615972F
:100E300080F06282738251834083D9016D937C93E9
:100E4000E114F10471F0D7011396FC93EE9312971D
:100E500076CF22968C0F9D1FF90191838083F30139
:100E6000EFCFF0931102E093100269CF48165906B4
:100E700008F42C017D01D3019ACFCB010E946D05AE
:100E80007C01009749F0AE01B8010E944F07C801EC
:100E90000E940906870153CF10E000E050CFFB010C
:100EA000DC0102C001900D9241505040D8F70895E6
:100EB000FB01DC018D91019080190110D9F3990B90
:100EC0000895FB01DC0101900D920020E1F70895E7
:040ED000F894FFCFC4
:100ED4000000120280000000000068018800B500D4
:100EE400B5012601C40018010D0A005052455353A0
:100EF400205550206F7220444F574E20746F20505D
:100F04004C4159007570004C4544205475726E650F
:100F140064204F4E20313320746F203600646F7785
:100F24006E004C4544205475726E6564204F4E200B
:080F34003620746F20313300F8
:107E0000112484B714BE81FFF0D085E080938100F7
:107E100082E08093C00088E18093C10086E0809377
:107E2000C20080E18093C4008EE0C9D0259A86E02C
:107E300020E33CEF91E0309385002093840096BBD3
:107E4000B09BFECF1D9AA8958150A9F7CC24DD24C4
:107E500088248394B5E0AB2EA1E19A2EF3E0BF2EE7
:107E6000A2D0813461F49FD0082FAFD0023811F036
:107E7000013811F484E001C083E08DD089C08234E0
:107E800011F484E103C0853419F485E0A6D080C0E4
:107E9000853579F488D0E82EFF2485D0082F10E0AE
:107EA000102F00270E291F29000F111F8ED06801E7
:107EB0006FC0863521F484E090D080E0DECF843638
:107EC00009F040C070D06FD0082F6DD080E0C81688
:107ED00080E7D80618F4F601B7BEE895C0E0D1E017
:107EE00062D089930C17E1F7F0E0CF16F0E7DF06D8
:107EF00018F0F601B7BEE89568D007B600FCFDCFD4
:107F0000A601A0E0B1E02C9130E011968C91119780
:107F100090E0982F8827822B932B1296FA010C0160
:107F200087BEE89511244E5F5F4FF1E0A038BF0790
:107F300051F7F601A7BEE89507B600FCFDCF97BE46
:107F4000E89526C08437B1F42ED02DD0F82E2BD052
:107F50003CD0F601EF2C8F010F5F1F4F84911BD097
:107F6000EA94F801C1F70894C11CD11CFA94CF0C13
:107F7000D11C0EC0853739F428D08EE10CD085E9AC
:107F80000AD08FE07ACF813511F488E018D01DD067
:107F900080E101D065CF982F8091C00085FFFCCF94
:107FA0009093C60008958091C00087FFFCCF809118
:107FB000C00084FD01C0A8958091C6000895E0E648
:107FC000F0E098E1908380830895EDDF803219F02E
:107FD00088E0F5DFFFCF84E1DECF1F93182FE3DFCA
:107FE0001150E9F7F2DF1F91089580E0E8DFEE27F6
:047FF000FF270994CA
:027FFE00040479
:0400000300007E007B
:00000001FF
